:020000022000DC
:107000000000042091730600C9730600AD56060007
:10701000CD730600B9560600BF56060000000000FA
:107020000000000000000000000000004505030013
:10703000D573060000000000DF050300EF05030024
:10704000F9AF060061100600DB730600DB73060073
:10705000DB730600DB730600DB730600DB730600E0
:10706000DB730600DB730600DB730600DB730600D0
:10707000DB7306008DB10600DB730600251D0600DC
:10708000DB730600DB730600DB730600DB730600B0
:10709000DB730600DB730600DB730600DB730600A0
:1070A000DB730600DB730600DB730600DB73060090
:1070B000DB730600DB730600000000000000000028
:1070C000DB730600DB730600DB730600DB73060070
:1070D000DB730600DB730600DB730600DB73060060
:1070E000DB730600DB730600DB73060000000000A4
:1070F00000000000DB73060000000000DB730600E8
:1071000010B5054C237833B9044B13B10448AFF3E1
:1071100000800123237010BD68670020000000007C
:10712000D051070008B5034B1BB103490348AFF327
:10713000008008BD000000006C670020D0510700EF
:10714000154B002B08BF134B9D46A3F5803A002139
:107150008B460F461348144A121A46F0BFFA0F4BDB
:10716000002B00D098470E4B002B00D098470020F2
:10717000002104000D000D48002802D00C483FF00B
:1071800035F846F087F9200029000BF083FA3FF02C
:107190002AF800BF000008000000042000000000E2
:1071A000F125030068670020086F0120ED610600EB
:1071B0000000000010B5034B0360044600F036FFEA
:1071C000204610BD00FD060010B5034B03600446C9
:1071D000FFF7F0FF204610BD10FD060010B5044675
:1071E000FFF7E8FF20460C213FF022FA204610BDB1
:1071F00010B50446FFF7E8FF20460C213FF018FACF
:10720000204610BD07B50422019101230DEB0201B8
:1072100000F06CFF03B05DF804FB000038B5264DAC
:1072200026492870264808F0E9FD264B1C6823688B
:1072300020469B68984720B92349214808F0DEFD85
:10724000FEE723682A78DB6B002A32D01F492046EC
:10725000984723681E49DB6A204698471D491C4809
:1072600001F030F92B783BB11B49194801F02AF99C
:1072700000211948FFF7C6FF236815491B6D2046FA
:10728000984700211348FFF7BDFF236820465B6D38
:10729000984712490A4808F0A2FD2978104B0B4A7A
:1072A0000748002914BF11461946BDE8384008F0C8
:1072B000A5BD0B49CBE700BF846700209EFD0600FB
:1072C0001476002048020700BEFD060087FD060078
:1072D0008867002094670020A0670020E6FD060074
:1072E00093FD060070B5124D124C1349134E2846FB
:1072F00001F0CAF82846124D124922463EF071FFAD
:1073000012221149284601F0E5F828460F4D224681
:1073100031463EF066FF12220D49284601F0DAF8A8
:10732000224631462846BDE870403EF05ABF00BFB5
:10733000886700200060002018FD0600C971020067
:10734000946700201D8402003DFD0600A067002018
:1073500062FD060070B5114B1C68236894B01B6970
:10736000064620460D469847236801A81B6F214614
:10737000984701A800F02AFF50B131460848FFF7AE
:1073800041FF084B1B781BB129460748FFF73AFF1E
:1073900001A800F0BEFE14B070BD00BF4802070097
:1073A0009467002084670020A067002070B506461F
:1073B0000C4613486A21154606F073FE3146104804
:1073C00006F081FE00210E4806F047FFA8B92A46C4
:1073D0006A210B4806F06FFEA8420ED1084E251810
:1073E000304606F07FFE40B1304606F085FE04F8D8
:1073F000010BAC42F4D1012000E0002070BD00BFC1
:10740000E8710020414B1B7837B5002B6DD0062268
:1074100069462220FFF7CAFF3D4D3E4C002866D04A
:107420009DF801209DF800309FED3B6A43EA02235E
:107430001BB29DF8032006EE903A9DF8023043EA15
:1074400002231BB207EE903A9DF805209DF8043008
:10745000F8EEE77A43EA022367EE867AF8EEE66A08
:107460001BB266EE866A07EE103A67EEA77AB8EEB0
:10747000C77AE6EEA67A27EE067AE7EE077A17EEE7
:10748000900A45F05FFC07EE900AB1EE087AC7EE6D
:10749000877AF4EE677AF1EE10FA16D6B1EE047A36
:1074A000F4EE477A9FED1D7AF1EE10FA48BFF0EE48
:1074B000477A2B7863B90123C4ED007A2B7008F06A
:1074C00015FF174B186020681EE0DFED147AF0E717
:1074D00094ED007ADFED136A27EE267ADFED126A6B
:1074E000A7EEA67A84ED007AE9E700200CE02B787D
:1074F00033B108F0FBFE0A4B1B68C01AFA28E2D928
:107500000020002320602B7003B030BDB067002046
:10751000B8670020AC670020295C0F3C0000000029
:10752000B46700206666663FCDCCCC3D70B50B4C91
:1075300006460D4620466A2106F0B3FD3146204638
:1075400006F0C1FD2946204606F0BDFD204606F0A6
:10755000AEFDB0FA80F0400970BD00BFE8710020B8
:1075600037B525492548264C08F048FC01210E2056
:1075700008F028FF01210E2008F064FF322008F0F7
:10758000C7FE204806F0ECFD1F491E4806F03EFEEF
:10759000002501220DF107010F208DF80750FFF79C
:1075A00005FF58B19DF80730693B012B06D84421EF
:1075B0001220FFF7BBFF40B9144900E014490F48FF
:1075C00008F01CFC0023237014E040211120FFF779
:1075D000ADFF0028F0D00F4B00221A600E4B1D703B
:1075E00008F084FE0D4B0E491860012303482370F8
:1075F00008F004FC03B030BD14FE06001476002031
:10760000B0670020E8710020801A060075FE0600B1
:107610003AFE0600AC670020B8670020B46700207F
:1076200057FE060070B52DED048B044682B04F491D
:107630004F489FED508A504E08F0D1FB21464C48F0
:1076400008F0CDFB4D494A4808F0D8FBB0EE489A07
:10765000F0EE488A0024F0EE489A0022FA213046E3
:1076600000F0ADFA054640B94549414808F0C6FB6F
:10767000284602B0BDEC048B70BD0121304600F0FD
:10768000D0FA07EE900A002C4FD0F4EE497AF1EED2
:1076900010FAB4EE678A48BFB0EE679AF1EE10FABE
:1076A00048BFB0EE678A01341420E4B278EEA78AAE
:1076B00008F02EFE082CD0D1F4EE007A68EEA78AEE
:1076C000F7EE007AB0EEE87AB4EEE77AF1EE10FA6F
:1076D00038EE498A06DCF6EE007AB4EEE78AF1EE7F
:1076E00010FA27DD2749224808F079FB18EE900AA6
:1076F00044F0DEFD022402460B4600941C4808F0CC
:10770000A3FC21491A4808F06AFB18EE100A44F05D
:10771000CFFD009402460B46154808F095FC1B4926
:10772000134808F06BFB0025A2E708EE100AB0EE44
:10773000679AB8E70F21104800F085FA144BC3EDA3
:10774000009A144B00221A7008F0D0FD124B134916
:107750001860074808F043FB074800F07CFA0A224B
:107760000146034808F094FB82E700BF7100070060
:107770001476002000000000C86700209300070076
:107780009C000700D0000700E4000700F10007009C
:10779000BC670020C0670020C467002013010700F9
:1077A00038B51F491F48204D08F028FB80230322CD
:1077B00002211D4800F0B1F91C491A4808F01EFBCF
:1077C00040F6B83008F0A4FD1949164808F016FB39
:1077D0000A240022FA21284600F0F1F910B12846C7
:1077E00000F0BAF91420013C08F092FD14F0FF04F7
:1077F000EFD1104B0C48196800F02BFA0E48FFF738
:1078000011FF18B90D49074808F0F8FA0C49054866
:1078100008F0F4FA0B490348BDE8384008F0EEBA26
:107820009AFE060014760020C8670020BAFE060003
:10783000DCFE060004600020FBFE060003FF0600DD
:107840003EFF060061FF060010B5054C204600F023
:1078500045F92046034A0449BDE810403EF0C1BC4A
:10786000C867002000600020CD7A0200F7B55A4CAE
:107870005A4E5B4F204607F03DF80546002853D08E
:10788000204607F0A9F8C5B205F0DF03432B33D13A
:1078900033785449544A83F00103002B08BF114642
:1078A0002046337008F0AAFA3378002BE2D02B2D53
:1078B00028D14E4B9FED4E7AD3ED007A77EE877A42
:1078C0004A4DC3ED007A29684A4800F0C2F94A4B94
:1078D0004A4900221A604A4B002220461A7008F0DA
:1078E0007EFA286844F0E4FC0223009302460B462B
:1078F000204608F0ABFBBCE7542BD5D13846FFF748
:1079000091FED1E72D2D07D1384B9FED397AD3ED7C
:10791000007A77EEC77AD3E7662D53D1334BB2EEB8
:10792000047AD3ED007AC9E708F0E0FC2A4606465F
:1079300002213048304C324D00F041F968B301214A
:107940002C4800F06EF92B7807EE100AC3B901231A
:1079500020602B702B4B1E60204BD4ED007A1B78DF
:1079600053B9DFED296AB0EEE77AB4EEE67AF1EECC
:1079700010FA21D8DFED257A17EE900A03B0F0BD9A
:10798000D4ED007AF6EE086A67EEA67AF5EE006AA4
:10799000E7EE267AC4ED007ADCE72B782BB1194BA1
:1079A0001B68F61AB6F5AF7FD6D9DFED187A00233B
:1079B000C4ED007A2B70DFE7F5EEC07AF1EE10FA35
:1079C000DADCD7E7672D7FF454AF084BB2EE047AC8
:1079D000D3ED007A9DE700BF14760020B967002040
:1079E0005500070090FF06003600070004600020E5
:1079F0000000C842C8670020BC6700205C00070088
:107A0000C0670020C46700209A99993E00000000DA
:107A100073B5FFF72BFF0446FFF7F4FC194E05463C
:107A200008F064FC3368C01A632821D908F05EFCB2
:107A300015493060154808F0D2F9204644F038FC6A
:107A400002230246009311480B4608F0FDFA104944
:107A50000E4808F0C4F9284644F02AFC012300939C
:107A600002460B46094808F0EFFA084808F0BEF94C
:107A700020462946FFF76EFC142002B0BDE8704096
:107A800008F046BCD86700202B01070014760020C0
:107A90003901070010B50B4C4FF4E131204606F0D8
:107AA000C9FD4FF47A7008F033FC0749204608F00E
:107AB000A5F9FFF775FE0120FFF7B0FBBDE8104008
:107AC000FFF74EBD1476002042010700704710B545
:107AD000102104463EF0ACFD204610BD034A026072
:107AE000002282604FF07E52C2607047780107002A
:107AF00008B5407908F0D6FCB0FA80F0400908BD1E
:107B0000402908D0802903D0202903D1022300E096
:107B10000123837170470323FBE738B504460271E4
:107B20004171104601211D4608F04CFC607900218E
:107B300008F048FC29462046BDE83840FFF7E0BF82
:107B400038B505460C462846FFF7D2FF18B920463F
:107B500008F0DEFBF7E738BD2DE9F04100210446CF
:107B6000FFF7EEFF72B601222179607908F0C4FCBC
:107B7000012221790646607908F0BEFC0122054603
:107B80002179607908F0B8FC00278046A379BB42D0
:107B900009D90121207908F055FC0021207908F04D
:107BA00051FC0137F2E762B6280240EA064040EA9B
:107BB000080046F3C01640EA0660BDE8F081F8B55B
:107BC00006460F46144608F091FB054608F08EFB6A
:107BD000401BB84207D23046FFF78AFF20B9204643
:107BE00008F096FBF2E70020F8BDF8B50024064641
:107BF0000F462546BC4208D03046FFF7ADFF05448E
:107C0000002008F085FB0134F4E795FBF4F0F8BDA3
:107C100010B50446FFF7E9FFA368C01A44F036FB2D
:107C200010BD70B50646FFF7F3FF0446F0680D4639
:107C300044F03EFB02460B462046294644F0BAFC7F
:107C400044F05EFE70BD10B50446FFF7CEFFA060A5
:107C500010BDC160704780687047704710B55C21E7
:107C600004463EF0E5FC204610BD00000A4A0260D2
:107C70001F210022C0E90921C0E90B228286C0E948
:107C80000E220264A0F8442080F84620C0E91222A7
:107C9000C0E91522704700BF8801070000231F229A
:107CA000C0E90A23036380F83530C0E90E3303646A
:107CB00080F84630C0E91233C0E9153370478B6A4B
:107CC0008362CB6AC3620B6B036391F8343080F834
:107CD000343091F8353080F835308B6B8363CB6B63
:107CE000C3630B6C0364B1F84430A0F8443091F8DE
:107CF000463080F846308B6C8364CB6CC364B1F83B
:107D00005030A0F850304B6D43658B6D83657047E4
:107D100008B5FFF7D4FF08BD70B5054686B06846C4
:107D20000E4603F059FCEC6C6846002CCCBF0234C4
:107D3000002403F090FC0230241AA86A241808D406
:107D4000AC62AE64684603F086FCE864012006B0CD
:107D500070BD0020FBE710B5036C1BB190F84640E6
:107D600084B90233941C1B1B846A1B1958BFC0E9D9
:107D70000F124FF000045BBF80F84640836220463C
:107D8000012010BD0433EDE730B5046C1CB190F850
:107D900046508DB902341D1D641B856A64195FBF8E
:107DA000C0E90F230123A0F8441080F8463056BFE5
:107DB00084620020184630BD0434ECE730B5846D91
:107DC000002CCCBF043400241D1D641B856A64197B
:107DD0005DBFC0E91523A0F850108462002058BF91
:107DE000012030BD70B50546806B0E4688B1047821
:107DF00014B146F033FB841C304646F02FFB0230B2
:107E0000241AA86A24185DBFAC62AE63012000206A
:107E100070BD0446F0E790F83530826A002B0CBF45
:107E20006FF0020300239B185FBF8362012380F879
:107E3000353080F8341054BF1846002070470430A5
:107E40007047406A704790F83500704738B504466F
:107E5000406AC0F11F039342154608DB04302044FA
:107E600045F014FC626A2A446262012038BD002099
:107E7000FCE770B50446406A0E461D4611460233C3
:107E8000C0F11F029A420FDB23186A1C1A71821C70
:107E90000630626220445E712A4645F0F7FB636A51
:107EA0002B446362012070BD0020FCE770B586B0F2
:107EB0000546684603F090FB684603F0CCFB0228B9
:107EC00004466846CCBF0626022603F0C2FB2346C2
:107ED000024631462846FFF7CCFF06B070BD134678
:107EE0000A46FF21FFF7C5BF30B589B005461046E9
:107EF0001C46ADF800101A4601460DF1020045F08F
:107F0000C5FBA31C6A46FF212846FFF7B2FF09B054
:107F100030BD30B589B0054610461C46ADF800109E
:107F20001A4601460DF1020045F0B0FBA31C6A465B
:107F300016212846FFF79DFF09B030BD07B5012384
:107F40008DF807100DF107021946FFF792FF03B0F5
:107F50005DF804FB70B5054610460E46144646F023
:107F60007DFA2246034631462846BDE87040FFF7B9
:107F700080BF70B5054608460C4646F06FFA1D28CE
:107F800007D9224628461D230821BDE87040FFF787
:107F900070BF224628460921BDE87040FFF7DABFCE
:107FA00038B5C16A00230546436229B1026B1AB194
:107FB000BDE83840FFF74ABF95F835307BB395F8F8
:107FC00034102846FFF7BAFF0446A96C21B12846B1
:107FD000FFF76CFF0440E4B2E96B61B12B6C53B165
:107FE00095F84620EAB10A462846B5F84410FFF74E
:107FF0007BFF0440E4B26A6D42B1AB6D33B1B5F8BA
:1080000050102846FFF785FF0440E4B2A96B21B168
:108010002846FFF7AEFF0440E4B2204638BD0124F5
:10802000D3E71A462846FFF75AFFE2E70C4B10B594
:1080300004460360406838B100F08EFA20B96068E9
:1080400010B103685B689847A06838B101F001F887
:1080500020B9A06810B103685B689847204610BD3E
:108060009801070010B50446FFF7E0FF20460C21F9
:108070003EF0DEFA204610BD064B10B5C0E90031D7
:1080800000230446836011B1084600F060FA2046E0
:1080900010BD00BF98010700064B10B50360002318
:1080A0000446C0E9013111B1084600F0CDFF204679
:1080B00010BD00BF980107002DE9F341044654208C
:1080C00098460E4617463EF09BFA9DF820300093E6
:1080D000054643463A46314600F012FB2946204603
:1080E000FFF7CAFF204602B0BDE8F08110B4446833
:1080F00024B120465DF8044B00F042BA806818B104
:108100005DF8044B00F0CABF5DF8044B704740684F
:1081100070477047024B186803681B69184700BF17
:1081200038050700024B186803685B69184700BFF1
:108130003805070010B4054B01791B681A685469AB
:10814000421D184623465DF8044B18478C03070070
:1081500010B50B4B0446186821790368621D9B6AB1
:1081600098474FF6FF739842014606D0054B1868B2
:108170000268BDE81040926A104794F94B0010BDA8
:108180008C0307003805070010B54C2104463EF06B
:108190004FFA204610BD000010B58AB04B7903930A
:1081A0008B790293CB7901930B7A009304464B7A37
:1081B0008A7A054905A846F0C7F805A9204607F0C0
:1081C0009DFF20460AB010BDA001070007B500239F
:1081D0000622694605300093ADF8043045F048FAB0
:1081E000003018BF012003B05DF804FB08B5027928
:1081F0000B799A4208D106220531053045F038FA4C
:10820000B0FA80F0400908BD0020FCE710B50A4B29
:108210000446186803681B699847236820461B6A50
:10822000984740B1054B217918680368621D5B6B64
:10823000BDE81040184710BD380507008C03070043
:1082400008B502790B799A4208D10622053105302A
:1082500045F00EFA003018BF012008BD0120FCE7F0
:10826000064A02607F210022C272027380F84B101E
:10827000C0F80520A0F80920704700BFC80107001A
:1082800010B501710021C1720173064C04607F2199
:1082900080F84B101168C0F805109288A0F80920EA
:1082A00010BD00BFC8010700F8B50F4612490646C9
:1082B00007F024FF397B0024A1421ADD3B19A21CE0
:1082C0005D7B9B7B083B012B05F1FF350FD82946D1
:1082D000304607F0E7FE0F343C440027BD4208DD7E
:1082E00014F8011B304607F066FF0137F6E7AC18BB
:1082F000E2E73046F8BD00BFB04407002DE9F04F7B
:1083000085B0884622490192834607F0F7FE002493
:10831000A14698F80C30A34235D908EB0403671C3A
:10832000FFB25E7B08EB07035B7B9A1E012A25D90F
:10833000063B012B24D8102505FB05F302340093DE
:1083400058FA84F44FF0000A731EEAB2534517DD61
:10835000019989450CD1114604F10D000393029255
:1083600003F07CF90146584607F0F3FEDDE90223ED
:10837000009909F10109AA440C44E7E70225DBE76B
:108380003E44F4B2C5E7584605B0BDE8F08F00BFE3
:10839000B044070010B500220446FFF7AFFF2046A7
:1083A00010BD08B5134602798A4208D10622194643
:1083B000053045F05DF9B0FA80F0400908BD0020B5
:1083C000FCE710B50446012000FA01F1E1722273C6
:1083D000194604F10D0045F059F99DF9083084F86B
:1083E0004B3010BD70B50D461146C27A42F01002F6
:1083F0000446C272007B0D302A4620441E4645F0DA
:1084000045F9237B84F84B601D44257370BDC37A06
:1084100013F0180F14BF0120002070470C4B10B54B
:1084200004460360406838B100F096F820B96068EF
:1084300010B103685B689847A06838B100F009FE86
:1084400020B9A06810B103685B689847204610BD4A
:10845000FC01070010B50446FFF7E0FF20460C21A1
:108460003EF0E6F8204610BD064B10B5C0E90031DD
:1084700000230446836011B1084600F068F82046E6
:1084800010BD00BFFC01070070B5044630200E4649
:108490003EF0B6F83146054600F010FD294620466C
:1084A000FFF7E2FF204670BD0346406808B100F0C8
:1084B00045B8986808B100F0C5BD0148704700BFD5
:1084C000B0440700406808B100F036BD704740680E
:1084D0007047000030B585B001250446009504239F
:1084E00092B2FFF7E9FD074B2360002303930422B8
:1084F0002B4603A92046FFF7F9FD034B23602046D6
:1085000005B030BD00FD060010FD060070470020DC
:10851000704710B5202104463EF08AF8204610BD71
:1085200010B5054B044640F8043B03F055F8002312
:10853000E361204610BD00BF0C020700043003F0C9
:1085400086B8043003F085B8043003F084B8C369FA
:108550000133C36118467047C369013BC3611846C4
:10856000704742F60300704790F82000704790F87B
:1085700021007047406A7047806A7047808D70475D
:108580002DE9F041436A9A42A8BF1A460446828503
:1085900092B2806A0F4645F079F894F82E300BB10C
:1085A000636AA38594F8203098060FD5A28E9107B0
:1085B0000CD51F4B218E186803685D6D0131A38DAA
:1085C000A26AAC4689B2BDE8F0416047DA0609D537
:1085D000A38EDB0706D5164B218E18680368013180
:1085E0001D6DECE794F83230F3B1124B1868036854
:1085F00021465B6A9847104B1D682B6801461E6B2D
:10860000A38D3A462846B047094B186803681B6B90
:10861000984748B9094B186803689B68984718B190
:108620002B6828465B6D9847A08DBDE8F08100BFA0
:108630008C030700D8040700480207008C040700D9
:1086400038B5054608460C4645F008FF2146024667
:108650002846BDE83840FFF793BF01867047008E7B
:108660007047008E013080B27047806B7047836B1B
:10867000994208D2C36B0022914202D05B6801325A
:10868000FAE71868704700207047000030B5114BBA
:1086900003600B7903710B4601F1490453F8052F70
:1086A000C0F805209B88A0F80930CB7AC3720B7BF9
:1086B000037300F10D0201F10D0353F8045B42F85E
:1086C000045BA342F9D11B88138091F94B3080F8E9
:1086D0004B3030BDC801070038B5044608200D46B0
:1086E0003DF08EFF0023C0E9005363682BB9606042
:1086F0002368A0600133236038BDA3685860F7E7A2
:1087000070B504461D461646FFF70AFFB5F5007F13
:10871000194B23602B46A8BF4FF4007300216362FE
:108720009DF810302684A18584F82E302163A1861F
:10873000C4E90E112164102204F1440044F0CEFF7C
:1087400016F0300F11D02C203DF05AFF0B49064691
:10875000022304F1340200F0D7F83046FFF7F7FEA9
:10876000314604F13800FFF7B7FF284644F01EFFFA
:10877000A062204670BD00BF280207001802070053
:1087800070B50446406800252368AB4206D94668A8
:1087900008213DF04DFF01353046F5E70023C4E9DF
:1087A0000033A36070BD0000154B70B50446036034
:1087B0000025A36B9D4212D2E36B0022954202D0AA
:1087C0005B680132FAE71E683046FFF7C5FE20B944
:1087D0001EB1336830465B6898470135E9E704F11C
:1087E00038052846FFF7CCFFA06A08B144F0E6FE42
:1087F0002846FFF7C5FF2046FFF788FE204670BDDC
:108800002802070010B50446FFF7CEFF204654218A
:108810003DF00EFF204610BDF0B5C56C97B0044684
:1088200017461E467DB103A8FFF730FF2146684674
:10883000FFF722FC694603A8A8476846FFF7F6FB46
:1088400003A8FFF766FCA16A1C9A3944304644F03D
:108850001DFF17B0F0BD70B504460E46114601224B
:1088600080F8332096B01A46FFF78AFE256D85B151
:10887000314603A8FFF70AFF21466846FFF7FCFBD5
:10888000694603A8A8476846FFF7D0FB03A8FFF78F
:1088900040FC16B070BD30B5838E02F003029342E7
:1088A00097B0044617D08286002A0CBF442240228B
:1088B000024455687DB103A8FFF7E8FE21466846EB
:1088C000FFF7DAFB694603A8A8476846FFF7AEFB47
:1088D00003A8FFF71EFC17B030BD4FF424507047BB
:1088E00010B5034B03600446FFF710FE204610BD91
:1088F0003C02070010B50446FFF7F2FF20462C218A
:108900003DF096FE204610BD70B504461D46164645
:10891000FFF706FE064B2360B5F5007FA8BF4FF4B6
:1089200000750023266265622385204670BD00BF66
:108930003C020700406A7047006A70470185704733
:10894000024B186803681B69184700BF3805070009
:10895000024B186803685B69184700BF38050700B9
:1089600010B5064B186803681B699847044B1868D4
:108970000368BDE810401B6B184700BF38050700AF
:108980008C03070010B5064B186803681B699847ED
:10899000044B18680368BDE81040DB6B184700BF44
:1089A000380507008C030700024B186803689B6CAE
:1089B000184700BF8C0307000C30704768307047C1
:1089C000024B186803681B69184700BFD8040700EA
:1089D000024B186803685B69184700BFD80407009A
:1089E000024B186803689B69184700BFD80407004A
:1089F000024B186803681B69184700BF8C04070006
:108A0000024B186803685B69184700BF8C040700B5
:108A1000024B186803685B6A184700BF8C040700A4
:108A200010B5074B0446186803681B699847054B47
:108A300019680B682046DB6C9847204610BD00BFC4
:108A4000380507008C03070010B5074B044618686B
:108A500003681B699847054B19680B6820469B6A99
:108A60009847204610BD00BF380507008C0407005A
:108A7000024B18680368DB6A184700BF8C040700C4
:108A8000024B186803689B69184700BF0C07070072
:108A9000024B18680368DB69184700BF0C07070022
:108AA000024B186803681B6B184700BF8C04070053
:108AB000024B18680368DB68184700BF8C03070087
:108AC000024B186803681B6A184700BF0C070700B1
:108AD000024B186803685B6A184700BF0C07070061
:108AE000024B1B68C3F8F010704700BF3805070041
:108AF000024B1B68C3F8F810704700BF3805070029
:108B0000024B1B68C3F8F410704700BF380507001C
:108B1000024B1B68C3F8EC10704700BF3805070014
:108B2000024B1B68C3F8FC10704700BF38050700F4
:108B3000024B1B68C3F80011704700BF38050700DF
:108B4000024B18680368D3F89C30184738050700B3
:108B5000024B18680368D3F8A0301847380507009F
:108B6000F0B52A4B1D682B6887B004469B682846E1
:108B70009847064620B923682046DB6898470DE0F1
:108B8000642007F0C5FB2B6828469B69984706467A
:108B900038B123682046DB6898470026304607B086
:108BA000F0BD05AA2B6801920DF112020092DF6957
:108BB00004AA0DF10E030DF10D012846B847002857
:108BC000D9D12B684FF0FF32D96A28466FF0404365
:108BD00088470028CFD12B6840F2FF32196B284616
:108BE0000023884706460028D3D12B680DF10F02D9
:108BF0005B6B0DF11601284698470028BBD1044B4A
:108C0000186803689B6898470126C7E7380507007E
:108C1000D80407000A4B10B5044618680368DB68DF
:108C20009847084B18680368DB68984704F10C0004
:108C3000FFF734F804F16800BDE81040FFF72EB8E4
:108C4000D80407003805070010B58CB00023059341
:108C5000ADF81830104B04461868036805A91B6A64
:108C600098479DF8143003939DF8153002939DF8B2
:108C7000163001939DF8173000939DF819209DF848
:108C80001830064907A845F05FFB07A9204607F002
:108C900035FA20460CB010BD38050700A0010700CA
:108CA0000C30FFF739B870B50368044608469D6A72
:108CB000FFF7FAFB2B4601462046BDE870401847F7
:108CC0000C30FFF77BB80C30FFF745B80C30FFF7DE
:108CD0005BB86830FFF786B86830FFF719B810B591
:108CE00000F10C042046FFF713F82046FFF7ABF81D
:108CF00028B920460621BDE81040FFF78CB810BD0A
:108D00002DE9F74300F10C05044668342846FFF7C7
:108D100047F92046FFF744F90E4B1E683368284692
:108D2000DF68FFF78CF880462846FFF78AF805468B
:108D30002046FFF784F881462046FFF782F8C0B24C
:108D400000904B46EAB241463046B84703B0BDE812
:108D5000F08300BF8C0407007FB5094B1C682368B3
:108D6000164601A89D6907F0EAF9324601A9204696
:108D7000A847044601A807F076F9204604B070BD64
:108D80008C0407007FB5094B1C682368164601A8B0
:108D9000DD6907F0D4F9324601A92046A847044608
:108DA00001A807F060F9204604B070BD8C040700EC
:108DB0007FB5094B1C682368164601A81D6A07F099
:108DC000BEF9324601A92046A847044601A807F08B
:108DD0004AF9204604B070BD8C04070002290BBF7D
:108DE000044B054B186818680BBF036803685B6B7E
:108DF0009B6D18478C0407008C03070038B50446A8
:108E0000084B44F80C3B05462046FEF72FFF05F1C2
:108E10006800FEF72BFF06212046FEF7FCFF2846E0
:108E200038BD00BF5402070010B5054C2046FFF7BF
:108E3000E5FF2046034A0449BDE810403DF0D1B9A2
:108E4000DC670020006000204D8E020010B5064B4C
:108E5000044640F8683BFEF700FF04F10C00FEF703
:108E6000FCFE204610BD00BF5402070010B50446AA
:108E7000FFF7ECFF2046C4213DF0DAFB204610BD91
:108E800010B50B4B19680B6894B001A8DB6C9847C0
:108E900001A8FFF79BF948B101A8FFF759F904466B
:108EA00001A8FFF736F9204614B010BD7F24F7E77C
:108EB0008C0307004FF420507047000010B50446A3
:108EC000FFF72EFB044B23600023C4E90833C4E9F9
:108ED0000A33204610BD00BF2003070001844284EE
:108EE0007047008C7047408C7047406A7047436AF7
:108EF000994208D2836A0022914202D05B68013213
:108F0000FAE7186870470020704738B504460846ED
:108F10000D46FFF71CFB08203DF072FB0023C0E963
:108F20000053A36A2BB9A062636AE06201336362F3
:108F300038BDE36A5860F7E710B504460846FFF706
:108F4000E6F8014620B12046BDE81040FFF7DDBF3E
:108F500010BD70B50446406800252368AB4206D9B1
:108F6000466808213DF064FB01353046F5E70023F3
:108F7000C4E90033A36070BD10B504462430FFF788
:108F8000E8FF0023236210BD134B70B50446036055
:108F90000025636A9D4212D2A36A0022954202D044
:108FA0005B680132FAE71E683046FFF7D5FA20B950
:108FB0001EB1336830465B6898470135E9E72046C3
:108FC000FFF7DAFF04F12400FFF7C3FF2046FFF7A5
:108FD0009DFA204670BD00BF2003070010B504466F
:108FE000FFF7D2FF204630213DF022FB204610BD86
:108FF00010B5044B044640F8043B07F034F8204613
:1090000010BD00BF3403070010B50446FFF7F0FFA2
:10901000204614213DF00CFB204610BD38B5044617
:109020002546074B45F8043B0846114602F016FB5F
:109030000146284607F062F800232361204638BD28
:109040003403070040687047036901330361184621
:1090500070470369013B03611846704738B5044601
:109060001D46FFF7DBFF0C4B2360BDF81030E38299
:10907000BDF814302383BDF8183063834FF4807239
:109080000023A582C4E90733A284C4E90A33C4E9F2
:109090000C33204638BD00BF440307002DE9F043E0
:1090A0009846274B1E68336885B004460F469B6B75
:1090B000818A30469146984718B9002005B0BDE82E
:1090C000F0833368A18A5B6C30469847033885B2D9
:1090D0004D45A8BF4D462946E06945F00FF8E061CF
:1090E0000028EAD0237E1A071CD5B8F1000F19D04A
:1090F00003AA33680192EAB20092D3F86080628BCF
:10910000A18A3B463046C0470028D7D09DF80C3096
:10911000012BD2D02A463946E06944F0B7FA2562DD
:109120000120CBE75B07C8D53368A18AEAB2009279
:10913000D3F86480628B3B463046C047EAE700BF05
:109140008C030700408B704738B5044608460D462F
:10915000FFF77AFF08203DF053FA0023C0E90053DF
:10916000E36A2BB9E062A36A20630133A36238BDCE
:10917000236B5860F7E770B5044640680025236804
:10918000AB4206D9466808213DF052FA0135304617
:10919000F5E70023C4E90033A36070BD03688B4288
:1091A00008D9436800228A4202D05B680132FAE79C
:1091B0001868704700207047F8B50546134B45F80E
:1091C000283B04460026A36A9E420ED2314628461A
:1091D000FFF7E4FF0746FFF73CFF20B91FB13B68EC
:1091E00038465B6898470136EDE72846FFF7C3FF2E
:1091F000E06918B144F0E2F90023E3612846FFF783
:10920000BAFF2046FFF7F4FE2046F8BD44030700EE
:1092100010B50446FFF7D0FF204638213DF008FA8C
:10922000204610BD70B50446036296B00D46C06975
:109230001946164644F062FFE06110B9206216B08C
:1092400070BD01233146A384226A44F01FFA666B85
:10925000002EF4D0194B03932B798DF810302B4648
:1092600005F1490153F8052FCDF811209B88ADF881
:109270001530EB7A8DF817302B7B8DF818300DF107
:10928000190205F10D0353F8040B42F8040B8B424D
:10929000F9D11B88138095F84B308DF85730214653
:1092A0006846FEF7F9FE694603A8B0476846FEF730
:1092B000BDFE03A8FEF72DFFC1E700BFC8010700F0
:1092C000074B10B504460360806918B144F076F985
:1092D0000023A3612046FFF78BFE204610BD00BF90
:1092E0005403070010B50446FFF7EAFF204620218B
:1092F0003DF09EF9204610BD38B504461D46FFF7E7
:109300008DFE054B2360BDF81030E3820023A5825B
:10931000C4E90633204638BD54030700034A0260FF
:109320000022C0E90122C260704700BF6403070049
:1093300038B5044608460D46FFF786FE08203DF086
:109340005FF90023C0E90053A3682BB9A0606368EC
:10935000E0600133636038BDE3685860F7E7406858
:1093600070474368994208D283680022914202D034
:109370005B680132FAE7186870470020704770B5E3
:109380000446406800252368AB4206D94668082198
:109390003DF04EF901353046F5E70023C4E90033CE
:1093A000A36070BD70B50646002473689C4212D25B
:1093B000B3680022944202D05B680132FAE71D686C
:1093C0002846FFF746FE20B91DB12B6828465B688A
:1093D00098470134E9E7301DFFF7D1FF70BD000069
:1093E00038B50446054B44F8043B0546FFF7DAFF61
:1093F0002046FFF7C4FF284638BD00BF64030700BE
:1094000010B50446FFF7ECFF204610213DF010F99F
:10941000204610BD38B504461D46FFF7FFFD084B3A
:109420002360BDF81030E382A582064904F11800DC
:1094300006F064FE0023C4E90933E362204638BD28
:1094400074030700B0440700808A7047C08A7047E1
:10945000406A7047436A994208D2836A0022914267
:1094600002D05B680132FAE7186870470020704745
:1094700038B5044608460D46FFF7E6FD08203DF0E6
:10948000BFF80023C0E90053A36A2BB9A062636A46
:10949000E0620133636238BDE36A5860F7E770B594
:1094A0000446406800252368AB4206D94668082177
:1094B0003DF0BEF801353046F5E70023C4E900333E
:1094C000A36070BD154B70B5044603600025636A48
:1094D0009D4212D2A36A0022954202D05B680132FB
:1094E000FAE71E683046FFF7B4FD20B91EB13368B5
:1094F00030465B6898470135E9E704F124052846C2
:10950000FFF7CDFF2846FFF7CAFF04F1180006F069
:10951000AAFD2046FFF76CFD204670BD74030700CE
:1095200010B50446FFF7CEFF204630213DF080F80D
:10953000204610BDA0F8A8107047C0F8AC107047C6
:109540002DE9FF41013A13F8014BD6B20268CDE98B
:109550000233526C05460F4690470C2C0246296890
:10956000029B79D02FD8052C69D01AD8022C60D054
:109570000BD8012C53D006230093D1F8DC600023D4
:10958000224639462846B0476EE0032C54D0042CBE
:10959000F1D10093D1F89440334639462846A0478C
:1095A00062E0092C52D007D8062C4BD0082CE2D10F
:1095B0000093D1F8A440EFE70A2C4DD00B2CDAD160
:1095C000D1F8B4402DE0162C51D00FD8112C40D03A
:1095D00005D8102CCFD10093D1F8B840DCE7122C7D
:1095E00018D0132CC7D1D1F8C8401AE01D2C04D0D4
:1095F0000CD8182C3FD01B2CBDD10093D1F8D480AF
:109600003346224639462846C0472DE01E2C36D028
:10961000522CB0D1CDE90063D1F8C46020E0D1F87C
:109620008440324639462846A44604B0BDE8F0419D
:109630006047D1F88840F4E7D1F89040F1E7D1F8DD
:109640009C40EEE70093D1F8A040A5E7D1F8AC40EC
:10965000E7E7D1F8C040E4E7CDE90063D1F8B060B6
:10966000234639462846B04704B0BDE8F081009350
:10967000D1F8CC4090E70093D1F8D0408CE7D1F8F6
:10968000D840CEE700F18C034FF6FF72B0F8B0106F
:10969000914204D11C309842F8D10020704701203B
:1096A000704708B503689B6A98474FF6FF73C01A66
:1096B00018BF012008BD000038B50A4B04461868E1
:1096C00003681B690D469847204604F18C03B0F8E7
:1096D000B020AA4204D01C309842F8D1002038BDF6
:1096E0000120FCE73805070000F18C0390F9C82041
:1096F000002A04DB1C309842F8D10020704701207A
:10970000704770B5002300F1B0041C2505FB03F27F
:10971000A65A8E4203D11044B0F8C00070BD013388
:10972000052BF3D11720F9E71FB5ADF80D2002681E
:10973000009302248DF80C400323D2F8F04003AAD2
:10974000A04704B010BD1FB5ADF80920ADF80B302F
:10975000069A0368009204248DF8084002AAD3F800
:10976000F0400523A04704B010BD1FB5ADF80B3085
:10977000BDF81830ADF80920ADF80D30079A036830
:10978000009210248DF8084002AAD3F8F040072375
:10979000A04704B010BD1FB5ADF80B30BDF81830B0
:1097A000ADF80920ADF80D30079A0368009208243F
:1097B0008DF8084002AAD3F8F0400723A04704B070
:1097C00010BD012380F83C31704700001FB5ADF893
:1097D0000A309DF818308DF80C30084B8DF80920B0
:1097E00001208DF80800186802AA03680092D3F8D7
:1097F000944004220523A04704B010BD380507009B
:1098000001299CBF00EB8100C0F8542170471FB5AF
:10981000ADF80D20026800930A248DF80C40032354
:10982000D2F8F04003AAA04704B010BDF0B5002361
:109830001C2500F1B00605FB03F4375B8F4204D012
:109840000133052BF7D100200FE0B4340444911DFF
:1098500014F8015B01F801599142F9D11C2202FB75
:109860000303012093F8B3300B70F0BD10B5054B26
:1098700003600446D0F8400108B143F09FFE204643
:1098800010BD00BF9803070010B50446FFF7EEFFB8
:1098900020464FF4AE713CF0CBFE204610BD0000D8
:1098A0002DE9F0431D4B1D688BB006230F460421A4
:1098B000002490462A680097CDE90713C821CDE916
:1098C00005410C21CDE90331CDE901840646D2F8EA
:1098D00054902346302260212846C847D8B906F064
:1098E00005FD044606F002FDD6F8AC30001B984298
:1098F0002B680DD21B6928469847336842465B6B3C
:109900003946304698470028ECD00BB0BDE8F083CC
:10991000DB6D284698470020F7E700BF38050700B1
:10992000F8B503689B6A044698474FF6FF73984260
:1099300006461ED0104B1D682B680146D3F89830A0
:109940002846984706F0D2FC074606F0CFFCD4F82C
:10995000AC30C01B98420CD22B6828461B69984734
:10996000236831469B6B204698470028EDD10120A3
:10997000F8BD0020FCE700BF380507002DE9F341E2
:109980000546089CA5F848111078C5F84C410130EF
:1099900085F84A01002085F85001194806683068AA
:1099A0000092D0F89480DBB2042230460F46C047C4
:1099B00024B306F09BFC044606F098FCD5F8AC30C6
:1099C000001B984214D2336830461B6998472B68B5
:1099D00039469B6B2846984750B195F850010028AE
:1099E000EAD04FF6FF73A5F8483102B0BDE8F08128
:1099F0004FF6FF73A5F848310020F6E72046F4E75C
:109A0000380507002DE9F047994603689B6A04462C
:109A100098474FF6FF739842064604D14FF000086E
:109A20004046BDE8F08723680146D3F8E030204681
:109A3000984780460028F1D0002504F1B0031C228D
:109A400002FB05F7D95BB14234D12744D7F8C430C3
:109A50003BB910203CF0D4FD8246FFF75FFCC7F80D
:109A6000C4A01C2303FB0545D5F8C450002DD5D058
:109A70002846B9F1000F21D1FFF794FC23682A464C
:109A8000D3F8E47031464B462046B8470028C5D08D
:109A900023682A46D3F8E830314620469847002804
:109AA000BCD023682A4631462046D3F8EC30BDE8C6
:109AB000F04718470135052DC2D1AFE7FFF74FFC3E
:109AC000002782465745D9DA39462846FFF749FC30
:109AD000FFF7B8FA494644F09BFC0028A0D00137B4
:109AE000F0E7F0B5C5B004469DF82851ADF80D205B
:109AF0000F4612218DF80C102A4619460DF10F0061
:109B000043F0C4FD23684B9A0092D3F8F06003AA97
:109B1000EB1C39462046B04745B0F0BDF0B5C5B0A6
:109B200004469DF82851ADF80D200F4652218DF8BE
:109B30000C102A4619460DF10F0043F0A7FD2368CB
:109B400000220092D3F8F06003AAEB1C39462046AD
:109B5000B04745B0F0BD10B500F1C90300F2551093
:109B600033F8194C8C4201BF1C8814809C78947087
:109B70001C338342F4D1002010BD00002DE9F041D8
:109B800096B004461C9E1F4600201C2304F1B00C16
:109B90004FF6FF7E03FB00F53CF80580F04505D04D
:109BA00001300528F6D116B0BDE8F0816019172301
:109BB00080F8B220A0F8C030A0F8B01080F8B370E0
:109BC00005F1B4033168E150E218B38893800DF1D8
:109BD0000901721E731D12F8010F01F801099A4262
:109BE000F9D10F4B1868BA35036804EB0508D3F8B0
:109BF0009030424601A9984710B96051A8F8040076
:109C0000D4F85441002CCED03246394603A8FEF792
:109C100037FB03A8A04703A8FEF77BFAC3E700BF02
:109C2000380507002DE9F04106460F46904600F141
:109C3000B405002415F8013CBB420CD10622414674
:109C4000284643F015FD30B91C2303FB0464B4F827
:109C5000B000BDE8F0810134052C05F11C05E9D107
:109C60004FF6FF70F5E72DE9F04106460F469046A6
:109C700000F1B405002415F8013CBB420CD10622CA
:109C80004146284643F0F4FC30B91C2303FB04642E
:109C9000D4F8C400BDE8F0810134052C05F11C05A1
:109CA000E9D10020F6E738B54FF6FF7204460B46BF
:109CB0000020B3F8B050954203D093F8B250012D74
:109CC00008D00130052803F11C03F2D12046FEF72D
:109CD000C7FA0AE01C23434303F1B4020B440A44CD
:109CE000204693F8B310FEF7CBFA204638BD98B55E
:109CF000B0F8A820D31DEC46DB08ACEBC30300AFE3
:109D00009D460368D3F88C406B46A047003018BFCF
:109D10000120BD4698BD00002DE9F04F87B002AF8D
:109D20009146DFF890A0B96000F18C020546FA6018
:109D30001C460026B5F8B080C7F804D04FF6FF7374
:109D400098452BD0B5F8C030DA1D6946D208A1EB92
:109D5000C202033B95469BB2A4B29C424FF01B0249
:109D600028BF1C468DF80820BA68ADF8092049467E
:109D700022460DF10B0043F089FCDAF800000DF1EA
:109D8000080B0268CDF800B0E31CD2F894B0DBB247
:109D900004224146D847D7F804D00136FB681C3569
:109DA0009D42C7D1002E14BF204600201437BD4667
:109DB000BDE8F08F380507002DE9F04F87B002AFFE
:109DC000C7E9002100F5A072064600F1B405BA60AB
:109DD0001C464FF0000935F804ACC7F80CD04FF61C
:109DE000FF739A4542D0AB89DA1D6946D208A1EBD0
:109DF000C202033B95469BB2A4B29C424FF01D02A7
:109E000028BF1C468DF808207A68ADF8092039680B
:109E100022460DF10B0043F039FC002386F83C315B
:109E2000194BD3F800800DF1080BD8F80020CDF8BD
:109E300000B0E31CD2F894B0DBB204225146404695
:109E4000D84796F83C316BB9D8F8003040461B69CA
:109E50009847336815F8011C5B6B2A4630469847D3
:109E60000028EED1D7F80CD009F10109BB681C35E8
:109E7000AB42B0D1B9F1000F14BF20460020143717
:109E8000BD46BDE8F08F00BF380507002DE9F04F53
:109E900089B002AF042BFA603A6CC7F808D0C7E962
:109EA000041014880AD0036804220092D3F8DC500E
:109EB0002346A8471C37BD46BDE8F08FFB68073333
:109EC0006A46DB08A2EBC3039D460DF10808052393
:109ED0008DF80830002388F80130484B013CD3F856
:109EE00000A0A4B20225DAF800305046DB6998479A
:109EF000844258D23B6C5B88A34254D9DAF80030D4
:109F000021461B6A5046984703689B6883469847DA
:109F100042F6030301349842A4B255D15846FEF7E5
:109F2000A0FB231A59425941DBF8003079609B6845
:109F3000584698477968024611B9B0F5245F45D173
:109F40005846C7E90012FEF7FFFAD7E900120228C7
:109F500006460CBF0123022398F8010008B988F8CF
:109F6000013098F8010098421DD105F102091FFA4D
:109F700089F928F8054008EB090311B9B2F5245F07
:109F800027D158467B60FEF7DCFA7B6801463246F3
:109F9000184643F07BFB09EB0605ADB20236FB68C1
:109FA0002E44B3429FDA022D1CD17A693B6C1268B1
:109FB0001B880A210091D2F8DC40D7E90410042262
:109FC000A047D7F808D075E70021ADE702260123A6
:109FD000C2E7DBF8003058469B689847043528F8FC
:109FE0000900DAE7064B18680368CDF80080D3F85B
:109FF00094403969EBB20422A047E2E7D804070095
:10A00000380507002DE9F04F89B002AF052B3E6CF3
:10A01000C7F808D08346C7E9032134880BD8036802
:10A0200004220092D3F8DC5006222346A8471C37AE
:10A03000BD46BDE8F08FFA6807326946D208A1EB49
:10A04000C202954607228DF80820B288B2F5205F3B
:10A050000DF1080A0DD0DBF8002033880A210091A9
:10A06000D2F8DC40396906225846A047D7F808D014
:10A07000DDE7063B9BB27B61274B013CD3F80090A8
:10A08000B31DA4B201257B60D9F800304846DB69D6
:10A090009847844232D27388A3422FD9D9F800302E
:10A0A00021461B6A4846984703689B688046984744
:10A0B000B38883421BD14046FEF746FA7B6998423B
:10A0C00015D14046FEF73DFA7A69796843F0D0FA37
:10A0D00068B94046FEF705FF2AF805004046FEF73E
:10A0E00002FFAB1C9BB204352AF80300ADB2FA683C
:10A0F000EB1C9A4202DD0134A4B2C5E7012DAAD0BF
:10A10000064B18680368CDF800A0D3F8944039696D
:10A11000EBB20422A047A9E7D804070038050700DE
:10A120002DE9F04F89B002AF062BBA603A6CC7F840
:10A130000CD081468B46158804D19388A3F5205313
:10A14000012B0FD9D9F8003010220092D3F8DC404F
:10A150002B4659464846A047D7F80CD01C37BD4679
:10A16000BDE8F08FBB6807336A46DB08A2EBC30388
:10A170009D4602AE11238DF8083000237370364BD4
:10A18000013DD3F800A0ADB20224DAF80030504609
:10A19000DB699847854247D23B6C5B88AB4243D929
:10A1A000DAF8003029461B6A504698473B6C026833
:10A1B0009B887B619268804690477B69834230D15F
:10A1C0004046FEF7C1F9022803460CBF06231423BC
:10A1D0003B61737878610BB93B69737073783A6946
:10A1E000934221D14046FEF77CFE30534046FEF7B5
:10A1F0007AFEA31C9BB20434A4B2F0523319404639
:10A200007B60FEF79EF97B687A690146184643F049
:10A210003DFA7B69BA681C443B69A4B223449A4264
:10A2200002DB0135ADB2B0E7022C09D13B6CD9F8A5
:10A2300000201B880A210091D2F8DC40102288E718
:10A24000064B186803680096D3F894500422E3B2D2
:10A250005946A84780E700BFD80407003805070023
:10A260002DE9F04F89B002AF91463A6CC7F808D09B
:10A27000062BC7E9031015880BD00368042200924F
:10A28000D3F8DC4008222B46A0471C37BD46BDE86A
:10A29000F08F09F107036A46DB08A2EBC3039D4672
:10A2A0000DF1080809238DF80830002388F80130E3
:10A2B0006D4B1B687B613B6C013D0433ADB20224E6
:10A2C0007B607B6978691B68DB699847854280F011
:10A2D00083803B6C5B88AB427ED97B6978691B6865
:10A2E00029461B6A984703689B68064698473B6C5B
:10A2F0009B888342336805F1010A1FFA8AFA9B683A
:10A3000030467AD1984742F6030398423DD1304611
:10A31000FEF7A7F9824535D03046FEF715F998F8D3
:10A320000120022803460CBF4FF0070B4FF0150B1E
:10A330000AB988F801B098F801203B605A454BD122
:10A3400028F804A03046FEF70FF9A21C92B202359D
:10A3500008F80200E21C92B2304628F80250FEF7DC
:10A36000F0F805343B68A4B208EB04051A46014630
:10A37000284643F08BF93B681C44A4B2A344D9455A
:10A380002ADB55460135ADB29BE7336830469B6802
:10A39000984742F602139842F4D128F804A03046B8
:10A3A000FEF7C8FA0234A4B2A9EB040980B21FFA7E
:10A3B00089F9814528BF8146304608EB0405FEF740
:10A3C000BBFA4A4601464C44284609F1020943F0CB
:10A3D0005DF9A4B288F80190022C38D13A693B6C3F
:10A3E00012681B880A210091D2F8DC40D7E90310DB
:10A3F0000822A047D7F808D047E7984742F603035A
:10A400009842BFD13046FEF79FF802288346B9D163
:10A410003046FEF796F85A460146786843F028F928
:10A420000028AFD128F804A03046FEF7A7F8023480
:10A43000A4B2A9EB04091FFA89F980B2814528BFAB
:10A440008146304608EB0405FEF796F8B9E7074B5E
:10A4500018680368CDF80080D3F89450F968E3B227
:10A460000422A847C6E700BFD80407003805070044
:10A470002DE9F043012B97B0044602AF0E46154676
:10A48000E8460BD0036804220092D3F8DC4018227F
:10A490000023A0475437BD46BDE8F083B0F83E1115
:10A4A00041B33B6F1B78DB0724D5224B1868036848
:10A4B00001391B6A9847002281461C2104F1B00033
:10A4C00001FB02F330F803C0B4452ED103F1B4020E
:10A4D0002344224493F8B310381DFDF7D1FE4846BB
:10A4E000B4F84431D4F84021391DFEF7B4F9381DD1
:10A4F000FDF70FFE00230735A4F83E31A4F84431E0
:10A50000ED086B46A3EBC5039D4619238DF8083073
:10A51000094B186802AA03680092D3F894400422F9
:10A5200001233146A047C546B4E70132052AC7D109
:10A53000E0E700BFD8040700380507002DE9F04F19
:10A5400087B002AF032B04460D467A601E46C7F85B
:10A550000CD00DD8036804220092D3F8DC401622F8
:10A560000023A047D7F80CD01437BD46BDE8F08FC4
:10A57000BB6B1B883B811FFA83F8BB6BB3F802B03F
:10A580004B4BD3F80090D9F800304846DB69984728
:10A5900008F1FF318BB2834206D923680A22009268
:10A5A000D3F8DC60434620E0D9F8003048461B6A07
:10A5B000984703689B688146984742F60303984290
:10A5C00002D023680B22EAE74846FEF74AF84045E6
:10A5D0008246F6D14846FDF7C7FF03070AD4236831
:10A5E00003210091D3F8DC60534616222946204609
:10A5F000B047B7E7B4F83E31E3B948463B60FDF7F2
:10A60000B9FF01468246D4F8400143F077FD3B682C
:10A610003A89A4F83E21C4F84001A4F844315246D6
:10A62000194643F05BF8B4F844315B4507D0236822
:10A630000722B4E75345F6D023680E21D1E7331F34
:10A640005FFA83FA0BEB0A024846BA60FDF792FF05
:10A65000BA6880B28242EADCBB6BD4F84001524651
:10A66000191D584443F012F8B4F84421B96B0AEBB1
:10A670000203A4F844317B6807336A46DB08A2EB87
:10A68000C3039D4617238DF8083032460DF10900AB
:10A6900042F0FCFF074B186802AC02680094731C80
:10A6A000D2F89440DBB204222946A0475AE700BF03
:10A6B000D8040700380507002DE9F04F9BB0012BA7
:10A6C0008A46039263D9249A023B1688059300F1C7
:10A6D0008C0204460292B4F8B030534542D1D4F80B
:10A6E000C450002D42D02846FEF739FE4FF0000935
:10A6F0008046C14536DA49462846FEF732FE07460F
:10A70000FEF7A2FEB0422AD23846FEF79FFEB042C4
:10A7100025D33846FEF79CFE249B0233804604F185
:10A72000B4090025049345451CDA29463846FEF74E
:10A7300091FE8346FEF706FDB0420ED14A4694F8DC
:10A74000B31007A8FDF79CFD5846DDE9042307A9CF
:10A75000FEF768FD07A8FDF7DCFC0135E3E709F12A
:10A760000109C6E7029B1C349C42B4D1039B1D2BFC
:10A770000DD11E238DF81C30064B186807AA0368FC
:10A780000092D3F89440042201235146A0471BB005
:10A79000BDE8F08F380507002DE9F04F8FB002AF0C
:10A7A000C7E90021FB60B0F8A830F96807336A46B2
:10A7B000DB08A2EBC30307F118059D468346284634
:10A7C00000F00AFF0DF108090124BD60DBF800303C
:10A7D000CDF804904FF420520092D3F8BC50796821
:10A7E0004FF6FF7322465846A847054620B199F810
:10A7F0000030112B04D001203437BD46BDE8F08F66
:10A8000099F801307B61A3F1040802235FFA88F80C
:10A8100009F102063B614FF6FF7A3B69AB4204DB6C
:10A820004FF6FF739A45D1D0E5E7FB68E3B93020D6
:10A830003BF0E6FE3146728831F8043B0092044654
:10A840004246FEF7E7FD21463868FEF771FD748841
:10A85000D7E904320134A4B2002C134408BF4FF0EE
:10A86000000A3B611644D8E7B86800F0F4FE4045A2
:10A87000EDD1B86800F0EDFE42460146301D42F0D1
:10A88000F7FE0028D3D0E2E72DE9F04F8DB0B0F805
:10A89000A83004AFC7E9042107336A46DB08A2EBFE
:10A8A000C3039D4682463869FEF759FD0DF1100934
:10A8B000F8604FF00008FB6898454ADA414638696D
:10A8C000FEF74FFDB861FEF7BFFD0646B869FEF71B
:10A8D000BDFDB860DAF80030CDF8049042F603020E
:10A8E0000092D3F8A8407969BB6832465046A04729
:10A8F000054678B399F80030092B27D199F8013033
:10A90000FB61053BDBB27B6009F102044FF0020BF7
:10A91000AB45DFDA38203BF073FEB4F80330029326
:10A92000A37801932388009306467B697A68611DAA
:10A93000FEF794FB3146B869FEF79AFDB4F8036060
:10A94000FB690136B6B29B441C44E1E708F10108FB
:10A95000B1E701202437BD46BDE8F08F2DE9F04F67
:10A960008FB0B0F8A83002AF0733C7E90421DB0885
:10A970006A46A2EBC3039D4602AB82463869FB627E
:10A98000FEF7EDFC4FF0000BF860FB689B456CDABE
:10A9900059463869FEF7E5FC7862FEF757FDB86066
:10A9A000786AFEF755FD431E386200267B603B6ADD
:10A9B0009E4257DA3146786AFEF74CFD7B68F861B3
:10A9C0009E4248D0711C786AFEF744FD0546F8693E
:10A9D000FEF7B8FB013084B2002D3ED02846FEF7CA
:10A9E000B1FBB862BB6AA3423AD3DAF80030FA6A24
:10A9F0000092D3F898507969BB6A22465046A8471E
:10AA0000054698B3FB6A1B78052B29D1FB6A93F89E
:10AA100001904FEA8903BB61FB6A4FF0020903F121
:10AA20000208A945E1DA20203BF0EAFD4146044650
:10AA300031F8023B00937B690222FEF75DFC214660
:10AA4000F869FEF781FBB8F80040BB690134A4B295
:10AA500099449844E5E70025B9E7BB68BB62C1E7C4
:10AA60000136A4E70BF1010B8FE701203437BD4617
:10AA7000BDE8F08F70B5002300F1B0041C2505FB84
:10AA800003F2A65A8E4204D00133052BF7D10020E1
:10AA900003E0104490F8C800C00970BDF0B5022A68
:10AAA00085B004460D4609D0036804220092D3F80D
:10AAB000DC4002220023A04705B0F0BD1B88B0F89F
:10AAC000A8209A4228BF1A46B03000231C2606FB55
:10AAD00003F1475AAF4212D10C44A4F8C020ADF89C
:10AAE0000D20094A032310688DF80C30026803A971
:10AAF0000091D2F8944029460422A047DCE70133B4
:10AB0000052BE4D1EBE700BF38050700F0B50023C3
:10AB100000F1B0051C2606FB03F42F5B8F4204D026
:10AB20000133052BF7D1002003E0204480F8C82032
:10AB30000120F0BD042A15D1B0F848218A4211D174
:10AB400090F84A211978013A8A420BD1D0F84C2169
:10AB500001211170D0F84C211B68C2F80130052387
:10AB600080F850317047022AF0B51ED1002200F162
:10AB7000B0051C2606FB02F42F5B8F4216D104445D
:10AB80001A88A4F8C020B0F848218A420DD190F864
:10AB90004A21032A09D1D0F84C110A70D0F84C117F
:10ABA0001B88A1F8013080F85021F0BD0132052A40
:10ABB000E0D1E8E7012A38B50446154613D9B0F8C4
:10ABC000480188420FD194F84A0105280BD1D4F8E6
:10ABD0004C110870D4F84C0119460130013542F08F
:10ABE00055FD84F8505138BD012A38B50446154644
:10ABF00013D9B0F8480188420FD194F84A011128BE
:10AC00000BD1D4F84C110870D4F84C01194601301E
:10AC1000013542F03BFD84F8505138BD38B504464B
:10AC2000B0F84801884215460FD194F84A110B2913
:10AC30000BD1D4F84C010170D4F84C011946013005
:10AC4000013542F023FD84F8505138BD38B5044633
:10AC500015469AB1B0F8480188420FD194F84A01DC
:10AC600009280BD1D4F84C110870D4F84C011946BE
:10AC70000130013542F00AFD84F8505138BD6AB9FF
:10AC8000B0F848318B4209D190F84A31132B01BFFB
:10AC9000D0F84C211370012380F850317047F0B583
:10ACA00000241C2500F1B00605FB04F3F75A8F427F
:10ACB00004D00134052CF7D1002006E0C9331488F4
:10ACC000C452C11893788B700120F0BDF0B50024F8
:10ACD0001C2500F1B00605FB04F3F75A8F4204D09F
:10ACE0000134052CF7D1002006E0B4331844036882
:10ACF0001360838893800120F0BDF0B500241C25EB
:10AD000000F1B00605FB04F3F75A8F4204D001347A
:10AD1000052CF7D1002009E0BA3303441C4600217A
:10AD200014F8010B18B901310629F9D1F0BD1968E1
:10AD300011609B8893800120F8E7000070B50546FC
:10AD400090F8850094B0F8B1104B114C1868B4F825
:10AD50004410036801391B6A984704F1470206460C
:10AD600094F8461001A8FDF78BFA94F84D3004F1E1
:10AD70004E0201A93046FDF76EFD01A8FDF7C9F9A5
:10AD8000002385F88530012014B070BDD804070079
:10AD9000A06800202DE9F04F9DB0984602AFB8F1B1
:10ADA0000A0F92460446796197F89020D7F89430BC
:10ADB000C7F80CD00FD1022A17D0036804220092E2
:10ADC000D3F8DC4042460023A047D7F80CD06C37BC
:10ADD000BD46BDE8F08F042A07D003680422009224
:10ADE000D3F8DC400C220023EEE7B8F10A0FB3F8E9
:10ADF000009018BFB3F802B0924B1D682B6828462C
:10AE0000DB6908BF4FF0000B984709F1FF318BB2A7
:10AE1000834207D923680A220092D3F8DC504246C5
:10AE20004B4624E00AF107036A46DB08A2EBC303A2
:10AE30009D46B8F10A0F6A460CBF0B230D2302F89A
:10AE4000083F2B683A611B6A2846984703689B684D
:10AE500005469847B0F5205F2BD1BBF1000F0AD013
:10AE6000236804220092D3F8DC500B224B46796908
:10AE70002046A847A9E72846FDF766FB80462846F6
:10AE8000FDF75FFB424601460DF1090042F0FEFB73
:10AE900008F101081FFA88F86B4B3A6918680368D3
:10AEA0000092D3F8944079695FFA88F30422A047AE
:10AEB0008BE742F6030398420AF1FF3A40F09F8085
:10AEC0002846FDF7CCFB48451ED1BBF1000F02D050
:10AED00023680B22A0E72846FDF746FB3B69587024
:10AEE0002846FDF7BEFB3B6958802846FDF72CFB42
:10AEF00080462846FDF725FB4246014603A842F05E
:10AF0000C5FB08F10408C5E72846FDF72DFB8307BC
:10AF100002D4236802227FE72846FDF728FB10F0C1
:10AF2000020022D0002204F1B0011C2000FB02F339
:10AF30007E6931F803C0B44510D00132052AF5D13D
:10AF400023680F220092D3F8DC3079691E4642460E
:10AF50004B462046B04701231E4607E0234493F9A1
:10AF6000C830002BECDA0023F6E706462846FDF74A
:10AF700005FB83B29B4502D3236807224CE780B2CE
:10AF8000A0EB0B008245A8BF82461FFA8AF3BB6084
:10AF900004F18C03A1467B604FF001081FFA8AFA86
:10AFA000B9F8B0307A69934219D109F1B40299F82D
:10AFB000B31007F11C00FDF763F9CDF800A03B6961
:10AFC0005A46434407F11C012846FDF725FC07F1CA
:10AFD0001C00FDF79EF8BB6898441FFA88F87B6850
:10AFE00009F11C099945DBD1002E3FF455AF4246CB
:10AFF0003969201D42F04AFB84F88480E5E6B0F50B
:10B00000245F1BD12846FDF795FC83B29B45B3D244
:10B0100080B2A0EB0B08C2452846A8BFC246FDF788
:10B020008BFC1FFA8AF200EB0B010AF1010A0DF109
:10B03000090042F02BFB1FFA8AF82DE74FF00108B8
:10B040002AE700BFD8040700380507002DE9F04FB4
:10B0500099B002AF1D4697F880303A60012B044644
:10B060000E467B600DD8122D07D103680422009292
:10B07000D3F8DC402A460023A0475C37BD46BDE834
:10B08000F08FD7F88430B3F800808E4BD3F800A04F
:10B09000DAF800305046DB69984708F1FF318BB28F
:10B0A00083420CD9122DE8D123680A220092D3F8EA
:10B0B000DC902A46434631462046C847DDE7DAF8A9
:10B0C000003050461B6A984703689B688146984742
:10B0D00042F6030B584540F0A0804846FDF7C1FA00
:10B0E0004045484601D1122D6FD1FDF73DFA0207C8
:10B0F00071D54846FDF73BFA10F0020A04F1B00B97
:10B1000016D000221C2101FB02F33BF80300B042E1
:10B1100067D00132052AF6D123680F220092D3F8B6
:10B12000DCA01222434631462046D0474FF0010AA8
:10B1300000231C2101FB03F23BF80200B04268D15E
:10B140007B68023B5FFA83FBD7F88430A118023397
:10B15000B4327B6091F8B3102244BAF1000F48D0AA
:10B16000032084F88500A4F8448084F84610116810
:10B17000C4F847109288A4F84B200A2284F885204E
:10B1800019465A4684F84DB004F14E0042F07EFA5A
:10B1900094F885200BEB020384F88530122D7FF4A0
:10B1A0006CAF3B6807336D46DB08A5EBC3039D46D8
:10B1B000132302AA8DF80830BAF1000F76D023715C
:10B1C000012384F88430AD4657E7FDF7CDF94307F6
:10B1D0007FF553AF8DE7122D7FF44FAF2368032225
:10B1E00064E7234493F9C830002B95DA4FF0000A46
:10B1F0009EE707F10C00FDF743F848465B467A6886
:10B2000007F10C01FDF727FB07F10C00FCF781FFAC
:10B21000C4E70133052B8DD1C0E7D9F8003048468B
:10B220009B689847B0F5245FD5D14846FDF78CF967
:10B230000228D0D14846FDF784F9028842F602136D
:10B240009A42C8D1DAF80030A8F102011B6A5046D0
:10B25000984703689B68814698475845BBD10022B0
:10B260001C2104F1B00001FB02F330F803C0B44527
:10B2700018D103F1B4022344224493F8B31007F128
:10B280000C00FCF7FDFFD7F8843048465A8807F1D8
:10B290000C01FDF700FB07F10C00FCF73AFF4FF043
:10B2A000000A7BE70132052ADDD1F8E7064B186872
:10B2B00003680092D3F89440042201233146A0474A
:10B2C00081E700BFD8040700380507001F4B70B5A1
:10B2D000044640F8863B02F0C0FE04F1870002F00D
:10B2E000BCFE1B4B04F1980503F110061868596861
:10B2F0002A4603C20833B3421546F7D141F28833D8
:10B300001721C4F8AC300023A4F8A810A4F83E31EB
:10B31000C4F84031A4F8443104F1B40204F5A0703B
:10B320004FF6FF7522F8045C02F8023C02F8013C7B
:10B33000136093809181136113751C328242F1D1A5
:10B34000C4F85431C4F85831204670BD9803070042
:10B350007C0307002DE9F04F00230446A7B0984670
:10B360004FF0FF35B0301C264FF6FF7706FB03F297
:10B37000825A8A4208BF1D46BA4203F1010318BF30
:10B3800008F10108052BF1D16B1C6ED01C236B4317
:10B3900003F1B4072344E619324693F8B310684624
:10B3A000FCF76EFFB8F1010F2FD1314BD3F80080BD
:10B3B0004FF0000942F6030BD8F800304046DB6935
:10B3C00098471FFA89FA82451AD2D8F800305146B8
:10B3D0001B6A4046984703689B68824698475845D1
:10B3E0000BD1694613A8FDF751F95046002213A965
:10B3F000FDF751FA13A8FCF78CFE09F10109DBE710
:10B400000023A4F83E31A4F84431D4F85881B8F1AF
:10B41000000F08D0694613A8FDF738F913A8C047F4
:10B4200013A8FCF776FE1C2303FB05434FF6FF72BF
:10B43000C3F8B0200022E251B280D3F8C400A3F8D0
:10B44000C8201721A3F8C01083F8CA2083F8CB20A6
:10B4500010B103685B6898471C2303FB0544002375
:10B46000C4F8C4306846FCF754FE27B0BDE8F08F3E
:10B47000D80407002DE9F04FA9B000F18C0306466F
:10B48000044601934FF000084FF6FF7AB4F8B0106D
:10B49000514559D0324B18680368D3F89830984713
:10B4A0000546002850D104F1B4094A4694F8B31077
:10B4B00002A8FCF7E5FE2B4B1F6808F101083B686A
:10B4C0003846DB6998471FFA85FB58451AD93B680F
:10B4D00059461B6A384698470268926883469047E7
:10B4E00042F6030398420BD102A915A8FDF7CEF846
:10B4F0005846002215A9FDF7CEF915A8FCF709FE5C
:10B500000135DCE70023A6F83E31A6F8443184F883
:10B51000B23084F8B330A4F8B0A0C9F80030A9F86C
:10B520000430D4F8C400C4F8BA30A4F8BE301723ED
:10B53000A4F8C03010B103685B6898470023C4F8D2
:10B54000C43002A8FCF7E5FD019B1C349C429DD150
:10B55000B8F1000FD4BF0020012029B0BDE8F08F62
:10B5600038050700D804070030B5002300F1C801F2
:10B570001C2404FB03F28D5CAD0703D51044B0F826
:10B58000B00030BD0133052BF3D10620F9E770B5CB
:10B59000002300F1B0041C2505FB03F2A65A8E42DD
:10B5A00004D00133052BF7D1002002E0104490F8BD
:10B5B000C80070BD10B5054C2046FFF787FE204639
:10B5C000034A0449BDE810403AF00BBEA0680020D1
:10B5D000006000206D98020073B5002504460E46F9
:10B5E00040F8041B10222946ADF804508DF806508F
:10B5F00042F074F825752EB3304642F02FFF451EF9
:10B60000002D237D19DB0F2B1FD8735D2D2B02D14D
:10B610000135023DF4E77219002112F8012C8DF872
:10B62000042001A810228DF8053042F0A5FF237DEB
:10B63000E218013310712375EBE7032B34BF0223AB
:10B6400010232375204602B070BD1023F9E700686F
:10B65000704704307047007D704700002DE9F047C7
:10B66000144C80464D1E4FF4AA594FF02D0A6A1C07
:10B670001AD018F8057010222146380904F00CFE83
:10B680001022611C07F00F0004F006FE0C2D04F1DF
:10B69000020606DC29FA05F3DB0744BFE61C84F842
:10B6A00002A0013D3446E2E7002323700148BDE8D3
:10B6B000F08700BFFC690020007970472DE9F04F4A
:10B6C00089B090460DF1180B027A9DF848601F462C
:10B6D0000023054689460693ABF80430FAB99E422A
:10B6E00014BF4FF0020A4FF0030A2B6828461B696B
:10B6F0009847194BEA881C680021072023680091AD
:10B70000CDE90301CDE9011B2046D3F83CB0114639
:10B710005346D84728B1002009B0BDE8F08F9A46BB
:10B72000E3E723684A461B6C4146204698470028B9
:10B73000F1D123683A465B6C314620469847002891
:10B74000E9D1236801219B6C204698470028E2D16B
:10B7500001202871E0E700BF38050700034B0021F6
:10B760000171186803689B6C184700BF3805070013
:10B770002DE9F341124B1D682B6801221B6D074612
:10B780000E4628460021002498472B68CDE9004446
:10B79000D3F84C8020231A4601212846C04768B9B7
:10B7A000012179712B6886EA01021B6D28469847B2
:10B7B000B0FA80F0400902B0BDE8F0812046FAE717
:10B7C00038050700C180704701727047022908BF21
:10B7D000C260704770B50B4D04461C30164604F02D
:10B7E0009FFC294604F1280004F0B3FC294604F12B
:10B7F000340004F0AEFC2368314620465B69BDE8A6
:10B8000070401847B04407002DE9F0410C4D044644
:10B810000F461C302946164604F09BFC394604F1BD
:10B82000280004F07DFC294604F1340004F091FC6A
:10B830002368314620465B69BDE8F041184700BFE8
:10B84000B04407002DE9F0410C4D04460F461C3072
:10B850002946164604F07DFC294604F1280004F030
:10B8600078FC394604F1340004F05AFC2368314670
:10B8700020465B69BDE8F041184700BFB0440700AF
:10B880007FB5C36B04460D468BB10B6801A89B695D
:10B89000984701A904F1340004F0BAFC064601A857
:10B8A00004F0E1FB1EB90024204604B070BD636AB9
:10B8B00073B1294601A8FCF7F7FC01A904F11C00AB
:10B8C00004F099FC064601A804F0CDFB002EEAD056
:10B8D000236B6BB1294601A8FCF75CFD01A904F1BB
:10B8E000280004F095FC044601A804F0BCFBDBE74B
:10B8F0000124D9E738B50F4B03604FF420030E4DF8
:10B9000043600123037200230446C0E90333C0E906
:10B91000053329461C3004F0F1FB294604F12800C8
:10B9200004F0ECFB294604F1340004F0E7FB204668
:10B9300038BD00BF98040700B044070003688B427D
:10B9400008D9436800228A4202D05B680132FAE7D4
:10B95000186870470020704770B50446406800259D
:10B960002368AB4206D9466808213AF061FE0135EA
:10B970003046F5E70023C4E90033A36070BD000042
:10B9800010B50A4B044640F8343B04F06CFB04F15C
:10B99000280004F068FB04F11C0004F064FB04F1CF
:10B9A0001000FFF7D9FF204610BD00BF9804070024
:10B9B00010B50446FFF7E4FF204640213AF038FE78
:10B9C000204610BD70B50E4B05461868036800226E
:10B9D0001B6D11460024984705F110066C712B6908
:10B9E0009C4209D221463046FFF7A8FF10B10368F8
:10B9F0005B6898470134F2E73046FFF7ADFF70BD52
:10BA00003805070003688B4270B504461AD9002236
:10BA1000406813468A42456803D0034601322846EF
:10BA2000F8E7066863B96560A268824208BFA36050
:10BA300008213AF0FDFD2368013B2360304670BDCC
:10BA40005D60F1E70026F9E72DE9F041074694B083
:10BA50000D46002401F110082B699C422AD2214690
:10BA60004046FFF76BFF0646FCF7D1FC00B33146BA
:10BA700001A8FCF70BFE21464046FFF7C3FF1EB1AD
:10BA8000336830465B6898472B6801A9DB6B284612
:10BA9000984750B101A93846FCF7F8FD01A8FCF71A
:10BAA00038FB384614B0BDE8F08101A8FCF731FB43
:10BAB0000134D1E73846FCF7D3FBF2E72DE9F04F2C
:10BAC000C568ABB004460F4692469B469DF8D080B1
:10BAD0009DF9D8902DB3032922D11A46514604A8C6
:10BAE000FCF7CEFBCDF80090359B4246394604A8C2
:10BAF000FCF767FC236804A9DB6B2046984748B134
:10BB000004A917A8E468FCF7C1FD17A8A04717A867
:10BB1000FCF7FFFA04A8FCF7FCFA2BB0BDE8F08FA5
:10BB2000002504F110032269AA420DD918462946BE
:10BB30000393FFF703FF5A4651460646FCF731FCD4
:10BB4000039B002841D006BB23691F2B08D9002185
:10BB500004F11000FFF756FF10B103685B689847C7
:10BB60004C203AF04DFD5A4651460646FCF788FBFC
:10BB700008203AF045FD0023C0E90063636933BB48
:10BB800060612569A0616B1C2361042F22D0CDF870
:10BB90000090359B424639463046FCF712FC304651
:10BBA000FCF735FC0028B8D0E368002BB5D031464F
:10BBB00004A8FCF76BFD294604F11000FFF722FFF3
:10BBC000336830465B68984794E70135ABE7A36973
:10BBD0005860D6E74B46359A41463046FCF702FCA2
:10BBE000DDE770B446799DF80C409DF9145026B1FC
:10BBF0000595039470BCFFF761BF70BC70470000EF
:10BC000010B5054C2046FFF775FE2046034A04494F
:10BC1000BDE810403AF0E5BA246A00200060002038
:10BC200081B90200406870474368994208D283682E
:10BC30000022914202D05B680132FAE7186870472F
:10BC40000020704773B5044630203AF0D9FC3249E1
:10BC50000546FDF733F9E56154203AF0D1FC0025A3
:10BC60000646142302222D490095FCF749FD266261
:10BC700054203AF0C5FC02231A460646284900958E
:10BC8000FCF73EFD666230203AF0BAFC25490646D4
:10BC9000FDF714F9A66254203AF0B2FC20220423E6
:10BCA000214900950646FCF72BFDE662E069FCF7AA
:10BCB0004EFC206AFCF74BFC606AFCF748FCA06A6B
:10BCC000FCF745FCE06AFCF742FCD4E90701FDF70C
:10BCD0001CF9616AE069FDF718F9D4E90A01FDF77A
:10BCE00014F9236811491B6920469847236829469F
:10BCF00020465B69984723682046DB6A984723689B
:10BD0000E1699B6A204698472368A16A9B6A20469E
:10BD100002B0BDE870401847DC040700E1040700EA
:10BD2000E6040700EB040700F0040700F504070031
:10BD300010B50446C06948B1FCF70EFC30B9E069A3
:10BD400010B103685B6898470023E361206A48B13B
:10BD5000FCF702FC30B9206A10B103685B689847B1
:10BD600000232362606A48B1FCF7F6FB30B9606AD1
:10BD700010B103685B68984700236362A06A48B10A
:10BD8000FCF7EAFB30B9A06A10B103685B6898471A
:10BD90000023A362E06A48B1FCF7DEFB30B9E06A39
:10BDA00010B103685B6898470023E362236820466C
:10BDB000DB6ABDE810401847006AFCF741BC07B5D4
:10BDC0000222ADF80610406A0DF10601FCF7D8FB1F
:10BDD00003B05DF804FB10B504460846FCF777FB9A
:10BDE000014628B1236820469B6ABDE810401847E9
:10BDF00010BD2DE9F0410025074688462C463B68DA
:10BE00003846DB699847A84211D93B6829461B6A26
:10BE10003846984703689B6806469847B0F5205F08
:10BE200002D0464503D0264601353446E7E7204692
:10BE30003CB1FCF789FB0228204604D1FCF781FBCA
:10BE40000088BDE8F081FCF77CFB4089F9E7000041
:10BE5000074A02600022C0E90122C0E90322C0E9CA
:10BE60000522C0E90722C0E90922C262704700BF6B
:10BE70000805070038B5044608200D463AF0C0FB17
:10BE80000023C0E9005363682BB960602368A06099
:10BE90000133236038BDA3685860F7E72DE9F84FF8
:10BEA00004460D46084604F10408FCF750FB2946F9
:10BEB0004046FFF7DFFF08203AF0A2FB0023C0E96D
:10BEC00000536369002B47D160612369A06101338E
:10BED000236123682046DB69984700271FFA80FB0F
:10BEE0002846FDF702F8B8423BD939462846FCF708
:10BEF000FEFF0646FCF72BFB31464046FFF7BAFF34
:10BF000023682046DB69984781B23046FCF7A5FBE1
:10BF10003046FCF71CFB31464046FFF7ABFF4FF0C5
:10BF200000093046FCF7A1FB484518D94946304680
:10BF3000FCF79DFB8246FCF70AFB51464046FFF7A3
:10BF400099FF23682046DB69984781B25046FCF789
:10BF5000F5FC09F10109E4E7A3695860B5E7013789
:10BF6000BEE723682046DB699847594682B22846D7
:10BF7000BDE8F84FFCF7B2BF70B504464068002535
:10BF80002368AB4206D9466808213AF051FB0135D7
:10BF90003046F5E70023C4E90033A36070BD70B5F7
:10BFA0000446406800252368AB4206D9466808214C
:10BFB0003AF03EFB01353046F5E70023C4E9003393
:10BFC000A36070BD38B50546064B45F8103B0446E6
:10BFD000FFF7AEFE2846FFF7E2FF201DFFF7CCFF7C
:10BFE000204638BD0805070010B50446FFF7EAFFF4
:10BFF000204630213AF01CFB204610BD70B50446A7
:10C00000002523682046DB699847A8420FD923689A
:10C0100029461B6A204698470646FCF79DFA20B938
:10C020001EB1336830465B6898470135E9E7201D4B
:10C03000FFF7A2FF002523699D420BD2636900220E
:10C04000954202D05B680132FAE71868FCF794FF6A
:10C050000135F0E704F11000FFF7A1FF70BD00000B
:10C0600008B5054B1846FFF7F3FE044A0449184685
:10C07000BDE808403AF0B5B8646A002000600020CE
:10C08000C5BF0200704700000023C0F80831024B12
:10C09000186803681B68184774060700024B186885
:10C0A00003685B68184700BF740607000368002137
:10C0B0005B69184710B40368D3F8A4400023A44672
:10C0C0001A4640F603415DF8044B604737B50368F4
:10C0D000ADF80610D3F8A45002220DF1060341F288
:10C0E00005410446A84750B9D4F81832BDF80620D7
:10C0F0001988914203D193F9020003B030BD7F202B
:10C10000FBE713B5CDE9002303680822D3F8A44068
:10C1100040F601416B46A04702B010BD13B5CDE912
:10C12000002303680822D3F8A44042F201016B46C1
:10C13000A04702B010BD10B40368D3F8A440062293
:10C140000B46A44642F205015DF8044B60471FB55B
:10C15000089C8DF804309DF818308DF805309DF856
:10C160001C308DF806302368CDF80730A388ADF871
:10C170000B309DF824308DF80D309DF828308DF867
:10C180000E300368ADF80010ADF80220D3F8A440DB
:10C190000F226B4642F20601A04704B010BD13B552
:10C1A00003688DF80710D3F8A44001220DF10703AE
:10C1B00042F20A01A04702B010BD13B5ADF803303A
:10C1C0009DF810308DF805309DF814308DF806304C
:10C1D00003688DF80010ADF80120D3F8A4400722C1
:10C1E0006B4642F20B01A04702B010BD13B50368C5
:10C1F0008DF804108DF80520D3F8A440022201AB7D
:10C2000042F20C01A04702B010BD10B588B00B9CE3
:10C210008DF808309DF828308DF809302368CDF866
:10C220000A30A388ADF80E309DF830308DF810300C
:10C23000BDF83430ADF81130BDF83830ADF81330FA
:10C24000BDF83C30ADF81530BDF84030ADF81730D2
:10C25000BDF84430ADF81930BDF84830ADF81B30AA
:10C260000368ADF80410ADF80620D3F8A4401922F5
:10C2700001AB42F20D01A04708B010BD10B4036835
:10C28000D3F8A4400023A4461A4642F20E015DF8FA
:10C29000044B60471FB5ADF80430BDF81830ADF859
:10C2A0000630BDF81C30ADF808300423ADF80A3074
:10C2B0000623ADF80C300368ADF80010ADF802208D
:10C2C000D3F8A4400E226B4642F21301A04704B0FB
:10C2D00010BD10B4D0F8EC402CB1194610462346DE
:10C2E0005DF8044B18475DF8044B7047F0B51D46E8
:10C2F00003688BB016460F469B6F04469847731E23
:10C300008DF800700DF10602053613F8011F02F8D2
:10C310000119B342F9D1109B6A1E0DF11601013BC0
:10C320000F3512F8010F01F80109AA4213F8010FA5
:10C330004874F6D123682722D3F8A45042F227018B
:10C340006B462046A84723682046DB6F98470BB012
:10C35000F0BD13B5531E8DF8001005320DF1060126
:10C3600013F8014F01F801499342F9D103680722FC
:10C37000D3F8A44042F22B016B46A04702B010BD97
:10C3800007B503680122D3F888306946984703B09F
:10C390005DF804FB37B5002300930DF10504CDF8DB
:10C3A00003304B1E053113F8015F04F801598B422D
:10C3B000F9D103688DF80620D3F8A44007226B4614
:10C3C00040F60D41A04703B030BD13B513238DF8DF
:10C3D00006300368ADF80410D3F8A440032201AB83
:10C3E00040F20641A04702B010BDC0F804117047EA
:10C3F0000023C0F80431704732B190F81D329342E7
:10C40000C6BF9A1AD2B2002280F81D22704710B41B
:10C41000D0F8F8300C4623B1204611465DF8044BA5
:10C42000184718465DF8044B704710B4D0F8EC304C
:10C430000C4623B1204611465DF8044B18471846B8
:10C440005DF8044B704710B4D0F8F4300C4623B1BB
:10C45000204611465DF8044B184718465DF8044B1A
:10C460007047D0F8FC302BB1D0F80001003018BF75
:10C47000012070470320704710B54FF448710446FF
:10C480003AF0D6F8204610BD564B2DE9F047044649
:10C490001D6819B12B6828469B6898472B68524E37
:10C4A0009B69524FDFF84881284698472B682846F9
:10C4B000DB6898472B68002800F08F805B6928466E
:10C4C0009847D4F80831B3F5817F5FFA80F912DB21
:10C4D0000023C4F80831D4F8043163B12B6828462E
:10C4E000DB6998473146D4F8040103F087FC2B68D8
:10C4F00028469B699847D4F80821531C2244C4F865
:10C50000083182F80C9194F80C21022A2ED1052BC7
:10C51000CCDD94F8101194F80F2102EB01220432C3
:10C520009342C3DD2B682846DB699847D4F8043171
:10C530004BB1236894F80821D3F8C090414604F524
:10C5400086732046C8470023D4F80811C4F8083180
:10C550002368D3F8B430013904F20D12C9B2204671
:10C5600098472B6828469B6998479FE7042A21D162
:10C57000032B9BDD94F80E210232934296DD2B684B
:10C580002846DB699847D4F804314BB1236894F806
:10C590000821D3F8C090394604F586732046C84771
:10C5A0000023D4F80811C4F8083123680139D3F8FE
:10C5B000BC30D1E70023C4F80831D4F80431002B93
:10C5C0003FF474AF2B682846DB6998471022494630
:10C5D000D4F8040103F075FCC3E72846DB69BDE825
:10C5E000F047184774060700620507008A05070030
:10C5F000770507001346F0B533F8046BC6F301372F
:10C60000022F87B00546144611D15488E4B2198828
:10C61000221F8A4220D0022F07D12246194605F256
:10C620001E2041F033F885F81D4307B0F0BD012FFF
:10C63000FBD190F81D03528800F21E2019462844B1
:10C6400041F024F8638895F81D431C44E4B285F852
:10C650001D4305F21E23DAE75C88A0B20428C6F366
:10C660000B010AD1184800680468246A0433D2B266
:10C67000A047002385F81D33D7E7052804D11348C8
:10C6800000680468E468F1E7062804D10F480068F0
:10C6900004682469EAE700220392ADF8142001221D
:10C6A0008DF80C200622ADF80E20022203ABADF867
:10C6B00010202A680093ADF812400A23D2F8944063
:10C6C00028460522A047D4E78C0307000C07070083
:10C6D000F0B5202589B004460E46174600212A46AB
:10C6E000684640F0FBFF324639460DF101008DF8F7
:10C6F000006040F0CBFF23682A46D3F8A46042F2E2
:10C7000008016B462046B04709B0F0BDF0B52025C2
:10C7100089B004460E46174600212A46684640F076
:10C72000DDFF324639460DF101008DF8006040F022
:10C73000ADFF23682A46D3F8A46042F209016B4694
:10C740002046B04709B0F0BD2DE9F04784B004465B
:10C7500000AF8A4691461D4694F81D2294F81C327B
:10C760009A4204D3236820461B699847F4E705F1F1
:10C77000100303F4FC73ADEB030D02233B712B1D7F
:10C78000DBB2A7F80730A7F80B90A7F805A0A7F829
:10C7900009503B1D03CB2A461B78009001910DF1F7
:10C7A0000900396B8DF8083040F070FFD4F804317F
:10C7B00005F10906E8463BB123680C49D3F8C0509F
:10C7C000F2B26B462046A84794F81D32013384F834
:10C7D0001D32074B1868036832461B6A414698476A
:10C7E00000201037BD46BDE8F08700BF3C050700BC
:10C7F000740607002DE9F0430D46114683B00B3156
:10C8000001F4FC7100AF0446ADEB010D012038715D
:10C81000A7F80550FA716846796840F8041B194674
:10C82000161D40F033FFD4F80431E8463BB12368CD
:10C830001649D3F8C090F2B26B462046C847144B55
:10C840001868036832461B6A414698474FF6FF73E3
:10C85000A4F80E324FF0FF33C4F8103203F046FD57
:10C8600000F57A76B4F80E32AB4208D003F03EFD04
:10C87000B04204D2236820461B699847F2E7D4F8F7
:10C8800010020C37BD46BDE8F08300BF4F0507001E
:10C890007406070007B500238DF8073001220DF15B
:10C8A000070342F22D010348FFF7A4FF03B05DF830
:10C8B00004FB00BF946A002007B501220DF10703B5
:10C8C00042F22D0103488DF80720FFF793FF03B0D4
:10C8D0005DF804FB946A00207FB501238DF80030D9
:10C8E0000B68CDF801308B88ADF805300DF11601DD
:10C8F000531E0F3213F8010F01F801099342F9D1C9
:10C900006B46172240F611410248FFF773FF07B04C
:10C910005DF804FB946A002013B50446684601F0F4
:10C920004BF9D4F8EC3063B1D4F8F4304BB1D4F80F
:10C93000F83033B1D4F8F0301BB10121684601F072
:10C940003EF96846012101F04CF96846012101F0E9
:10C950003FF96846012101F04DF92D2101A801F0B0
:10C960002CF99DF8040002B010BD2DE9F0411D46E0
:10C970000368D3F8A48000230F46164641F2010154
:10C980001A460446C04770B9D4F818321A783A707B
:10C99000B3F801203280DA782A70069A99881180DB
:10C9A000DA88079B1A80BDE8F08113B503686946F1
:10C9B0001B6A0446984750B9D4F81832D9345A1E25
:10C9C000053312F8011F04F801199A42F9D102B097
:10C9D00010BD0000F8B50368D3F8A45000230E463C
:10C9E000174642F202011A460446A847054678B99E
:10C9F000D4F818321A8832809B783B7084F81C3245
:10CA0000044B31881868036809399B6889B29847D4
:10CA10002846F8BD8C03070070B588B00C46154653
:10CA2000002120220646684640F058FE631E0DF1A4
:10CA30000F016A1E0F3413F8010F01F80109A34218
:10CA400012F8010F4874F6D133682022D3F8A440BD
:10CA500042F217016B463046A04750B90C9B103389
:10CA6000D6F81822125C03F8012D01301028F7D1F6
:10CA7000012008B070BD70B50368D3F8A46000232E
:10CA80000C461A4641F209010546B04728B9D5F8C7
:10CA900018321A6822609B88A38070BD70B5036845
:10CAA000D3F8A46000230C461A4642F2180105464A
:10CAB000B04728B9D5F8182213682360536863601B
:10CAC00070BD00002DE9F0411678052EB2B0054684
:10CAD00014461DD19F4B52791868B4F803100368AF
