:020000022000DC
:107000000000042099A20600D1A206009D5D0600A2
:10701000D5A20600A95D0600AF5D060000000000D5
:107020000000000000000000000000008D090300C7
:10703000DDA2060000000000270A0300370A030053
:1070400069E10600A9140600E3A20600E3A2060017
:10705000E3A20600E3A20600E3A20600E3A2060004
:10706000E3A20600E3A20600E3A20600E3A20600F4
:10707000E3A20600FDE20600E3A206006D21060081
:10708000E3A20600E3A20600E3A20600E3A20600D4
:10709000E3A20600E3A20600E3A20600E3A20600C4
:1070A000E3A20600E3A20600E3A20600E3A20600B4
:1070B000E3A20600E3A206000000000000000000BA
:1070C000E3A20600E3A20600E3A20600E3A2060094
:1070D000E3A20600E3A20600E3A20600E3A2060084
:1070E000E3A20600E3A20600E3A2060000000000FF
:1070F00000000000E3A2060000000000E3A206007A
:1071000010B5054C237833B9044B13B10448AFF3E1
:1071100000800123237010BD706700200000000074
:10712000688B070008B5034B1BB103490348AFF355
:10713000008008BD0000000074670020688B070015
:10714000154B002B08BF134B9D46A3F5803A002139
:107150008B460F461348144A121A49F0B7FB0F4BDF
:10716000002B00D098470E4B002B00D098470020F2
:10717000002104000D000D48002802D00C483FF00B
:10718000ADFB49F07FFA200029000BF0A7FC3FF08F
:10719000A2FB00BF00000800000004200000000067
:1071A000392A030070670020E8700120DD680600BE
:1071B0000000000010B5034B0360044601F050F9D5
:1071C000204610BDA02F070010B5034B03600446F6
:1071D000FFF7F0FF204610BDB02F070010B50446A2
:1071E000FFF7E8FF20460C213FF0AEFD204610BD22
:1071F00010B50446FFF7E8FF20460C213FF0A4FD40
:10720000204610BD07B50422019101230DEB0201B8
:1072100001F086F903B05DF804FB000038B52C4D91
:107220002C4928702C4809F003F82C4B1C68236863
:1072300020469B68984720B92949274808F0F8FF5D
:10724000FEE723682A78DB6B002A39D025492046DF
:107250009847236823499B6C204698472368224916
:10726000DB6A2046984721491F4801F045FB2B78EF
:107270001BB11F491C4801F03FFB23681A491B6DD5
:107280002046984700211948FFF7BCFF2B781BB117
:1072900000211748FFF7B6FF236820465B6D98472B
:1072A00014490D4808F0B5FF2978134B0D4A0A48D8
:1072B000002914BF11461946BDE8384008F0B8BF90
:1072C0000D492046984723680B499B6CC4E700BFD3
:1072D0008C67002041300700247600208C3707009F
:1072E0006130070027300700906700209C6700206E
:1072F000A8670020893007003330070070B5124DB1
:10730000124C1349134E284601F0D8FA2846124D64
:10731000124922463FF0DDFA12221149284601F0B7
:10732000F3FA28460F4D224631463FF0D2FA122298
:107330000D49284601F0E8FA224631462846BDE8C4
:1073400070403FF0C6BA00BF906700200060002088
:10735000B82F0700C97102009C6700205188020005
:10736000DD2F0700A86700200230070070B5154B1D
:107370001C68236894B01B69054620460E46984752
:10738000236821461B6F104C01A8984701A801F003
:1073900037F9A0B10D4B1B7873B1237863B10C485A
:1073A0003146FFF72FFF237883F00103237001A8F4
:1073B00001F0C9F814B070BD29460648F1E7207005
:1073C000F5E700BF8C3707008D6700208C67002031
:1073D000A86700209C6700200F4B70B51C6806460C
:1073E0000D46BCB10D4A23681178DB6A20469847E8
:1073F000236831461B6820469847236829461B6846
:1074000020469847236820465B6B9847B0FA80F087
:10741000400970BD2046FCE7B867002004600020EA
:107420002DE9F0411D460368069EDB6A044690463E
:107430000F469847236841461B68204698472368B3
:1074400020465B6B984790B923683246DB6B394620
:107450002046984786420AD12E44236820465B691D
:10746000984705F8010BB542F7D1012000E0002054
:10747000BDE8F0812DE9F04385B0154601260DF1F8
:107480000F030F22894600242946009680468DF876
:107490000F40FFF7C5FF1B4907461B4808F0B9FE20
:1074A0004946194808F0B5FE1849174808F0B1FEDA
:1074B00029461022144808F026FF1549124808F002
:1074C000A8FE3FB91349104808F0B2FE384605B08F
:1074D000BDE8F08310490C4808F09BFE10229DF88F
:1074E0000F10094808F011FF9DF80F30693B012B80
:1074F0009FBF0A4BC3F80080094B304694BF1D70F4
:107500002046E4E7C831070024760020D331070085
:107510008E3A0700DC310700E8310700B867002029
:107520000460002070B57A4B2DED048B1B7884B07D
:10753000002B00F0D280774B774D1868774C784E4F
:10754000002800F0CC80062376490093222202AB6B
:107550000978FFF765FF002800F0C1809DF8092039
:107560009DF80830DFED707A43EA02231BB29DF8E4
:107570000B2009EE103A9DF80A3043EA02231BB2B1
:1075800008EE903A9DF80D209DF80C3043EA022356
:107590001BB208EE103AF8EEE88AB8EEC99A68EE27
:1075A000A78AB8EEC88A29EE279A28EE278A68EEBD
:1075B000A87AE9EE097AE8EE087A17EE900A48F020
:1075C000B9FC07EE100AF1EE087AC7EE279AF4EE3E
:1075D000699AF1EE10FA68D6F1EE047AF4EEE79AC1
:1075E0009FED527AF1EE10FA58BFB0EE697A2B781F
:1075F000002B5DD1012384ED007A2B7009F09AF8FD
:107600004B4B186009F096F83368C01AB0F5FA7F52
:1076100049D309F08FF847493060474808F0F9FD31
:1076200019EE100A47F03CFF022502460B46009572
:10763000414808F02DFF41493F4808F0EAFD18EEA7
:10764000900A47F02DFF009502460B463A4808F095
:107650001FFF3B49384808F0DCFD18EE100A47F0E0
:107660001FFF009502460B46334808F011FF3549CD
:10767000314808F0CEFD19EE900A47F011FF0125C0
:1076800002460B4600952C4808F002FF2E492A4876
:1076900008F0BFFD206847F003FF009502460B4647
:1076A000254808F0F7FE20682EE09FED207A9EE73F
:1076B000D4ED007ADFED256A67EEA67ADFED246A65
:1076C000E7EE267AC4ED007A98E709F033F8184B14
:1076D0001B68C01AFA2813D8E5E7002014E009F067
:1076E00029F83368C01AB0F5FA7F06D309F022F8FA
:1076F00018493060104808F09BFD2B78002BE4D12E
:107700000020002320602B7004B0BDEC048B70BD02
:10771000BC670020B8670020C8670020B46700205D
:10772000C067002004600020295C0F3C00000000BE
:10773000C4670020B930070024760020C33007005A
:10774000C8300700CD300700DC3007006666663FB2
:10775000CDCCCC3DEC3007002DE9F7433A493B480E
:107760003B4D3C4EDFF8209108F062FD3A4B03227E
:10777000C3F820274FF48072C3F808250A24642038
:1077800008F0EAFF284606F005FF304606F002FF43
:10779000B9F80030ADF804309DF804802F49424616
:1077A0003046FFF767FE78BB9DF805702B493A46D7
:1077B0003046FFF75FFE38BB424629492846FFF7AF
:1077C00059FE08BB3A4626492846FFF753FED8B96A
:1077D000013CD4D123491D4808F02AFD224B1C70DE
:1077E0002EE0224B00221A60214B00221A7008F072
:1077F000A1FF204B2049186014480123237003B0D7
:10780000BDE8F04308F014BD1C491048164C08F0C0
:1078100000FD1B4B0D481978102208F076FD44211D
:107820001220FFF7D9FD28B140211120FFF7D4FD28
:107830000028D6D11349054808F0FAFC002323702C
:1078400003B0BDE8F08300BF0431070024760020B8
:10785000046F0020F8710020000300502A31070057
:107860003031070078310700BC670020B467002082
:10787000C8670020C46700205A310700B0310700F4
:107880000460002035310700B730070013B5094CFC
:107890000949204608F0BDFC084B186847F000FE77
:1078A0000323009302460B46204608F0F3FD02B086
:1078B00010BD00BF247600205A3607000860002063
:1078C00070B52DED048B044682B04F494F489FEDB3
:1078D000508A504E08F09DFC21464C4808F099FC17
:1078E0004D494A4808F0A4FCB0EE489AF0EE488AA8
:1078F0000024F0EE489A0022FA21304600F079FB8D
:10790000054640B94549414808F092FC284602B076
:10791000BDEC048B70BD0121304600F09CFB07EEEE
:10792000900A002C4FD0F4EE497AF1EE10FAB4EE42
:10793000678A48BFB0EE679AF1EE10FA48BFB0EE22
:10794000678A01341420E4B278EEA78A08F004FFB5
:10795000082CD0D1F4EE007A68EEA78AF7EE007A10
:10796000B0EEE87AB4EEE77AF1EE10FA38EE498A32
:1079700006DCF6EE007AB4EEE78AF1EE10FA27DDC7
:107980002749224808F045FC18EE900A47F088FD88
:10799000022402460B4600941C4808F079FD214958
:1079A0001A4808F036FC18EE100A47F079FD0094EA
:1079B00002460B46154808F06BFD1B49134808F0BA
:1079C00037FC0025A2E708EE100AB0EE679AB8E788
:1079D0001921104800F051FB144BC3ED009A144BD1
:1079E00000221A7008F0A6FE124B134918600748CF
:1079F00008F00FFC074800F048FB0A220146034844
:107A000008F06AFC82E700BFA0350700247600205A
:107A100000000000D8670020C2350700CB35070002
:107A2000FF3507001336070020360700CC6700201B
:107A3000D0670020D46700204236070030B53C49AB
:107A40003C483D4D85B008F0F3FB80230322022122
:107A5000394800F07CFA3949364808F0E9FB40F62D
:107A6000B83008F079FE3649324808F0E1FB0A24C4
:107A70000022FA21284600F0BCFA10B1284600F096
:107A800085FA1420013C08F067FE14F0FF04EFD1E2
:107A900000230293042203AB02A92A48039440F076
:107AA000B0FD294C002841D1039B042B3ED19DED14
:107AB000027ADFED266AF0EEC77AF4EE667AF1EE2E
:107AC00010FA33D8F7EE006AF4EEE67AF1EE10FA27
:107AD0002CDBDFED1F6AF4EEE67AF1EE10FA25D822
:107AE0001C4984ED007A134808F093FB206847F0A6
:107AF000D7FC0323024600930E480B4608F0CAFC4D
:107B00000D48216800F0BFFA1348FFF7D9FE18B9F5
:107B10001249084808F08CFB1149064808F088FB18
:107B20001049044808F084FB05B030BD0E49DAE77F
:107B3000F431070024760020D867002014320700B3
:107B4000363207005532070008600020FFFF7F7FB4
:107B5000002474496E320700B3320700BB320700BD
:107B6000F6320700193307009032070010B5054CB4
:107B7000204600F0CDF92046034A0449BDE81040F4
:107B80003EF0A7BED867002000600020017F020001
:107B90002DE9F7438C4C8D4E8D4F204607F0C4F8ED
:107BA0000546002800F0B880204607F02FF9C5B23E
:107BB00005F0DF03432B0CD133788649864A83F0E6
:107BC00001033370002B08BF1146204608F030FB3C
:107BD0002FE0542B49D18149204608F01AFB8049F7
:107BE000204608F016FB7F49204608F021FB0022C2
:107BF000FA217D4800F0FDF908B97C49E5E7192133
:107C0000794800F03AFA7A4B00221A60794B002248
:107C10001A7008F08FFD784B78491860204608F0FC
:107C2000F8FA714800F031FA0A220146204608F0BD
:107C300053FB3378002BB0D02B2D5BD1704B9FEDD5
:107C4000717AD3ED007A77EE877AC3ED007A6C4BC8
:107C50006548196800F017FA654B00221A60654BF9
:107C600000221A70FFF712FE96E75A2B03D16648DE
:107C7000FFF726FEDDE7502B02D1FFF707FED8E71E
:107C8000532B24D1DFF8789100230422494638464B
:107C900040F08EFC804678B95C49204608F0B9FA7D
:107CA000D9F8000047F0FCFB0323009302460B4683
:107CB000204608F0EFFBBCE75549204608F0A9FA3A
:107CC00041460A22204608F0FDFA52497DE7522B30
:107CD000AFD1384640F0BAFC804608B94E4974E747
:107CE0004E49204608F095FA0A224146204608F0FF
:107CF000E9FA9EE72D2D07D1414B9FED427AD3ED56
:107D0000007A77EEC77AA0E7662D54D13C4BB2EEED
:107D1000047AD3ED007A96E708F00CFD2A46064671
:107D200002213148324C334D00F063F970B3012128
:107D30002D4800F090F92B7807EE100ACBB90123FB
:107D400020602B702C4B1E60204BD4ED007A1B78EA
:107D500053B9DFED336AB0EEE77AB4EEE67AF1EECE
:107D600010FA22D8DFED2F7A17EE900A03B0BDE8A3
:107D7000F083D4ED007AF6EE086A67EEA67AF5EEA7
:107D8000006AE7EE267AC4ED007ADBE72B782BB1A8
:107D9000194B1B68F61AB6F5AF7FD5D9DFED217AFE
:107DA0000023C4ED007A2B70DEE7F5EEC07AF1EE29
:107DB00010FAD9DCD6E7672D7FF4EEAE104BB2EEA9
:107DC000047AD3ED007A9CE724760020C96700206E
:107DD000553207007933070059340700783407001B
:107DE0008134070088340700D8670020AA340700D0
:107DF000CC670020D0670020D467002042360700FF
:107E0000086000200000C842C9340700D7340700CA
:107E1000F2340700133507005635070078350700A0
:107E20009A99993E0000000073B5FFF7B1FE044631
:107E3000FFF778FB194E054608F07CFC3368C01A42
:107E4000632821D908F076FC15493060154808F000
:107E5000E0F9204647F024FB022302460093114834
:107E60000B4608F015FB10490E4808F0D2F92846D9
:107E700047F016FB0123009302460B46094808F021
:107E800007FB084808F0CCF920462946FFF76EFAB0
:107E9000142002B0BDE8704008F05EBCE867002026
:107EA0006F360700247600207D36070070B54FF44A
:107EB000E1311148104E06F0D7FD08F03BFC40F6CA
:107EC000B7340546304606F02FFE20B908F032FCE4
:107ED000401BA042F6D94FF47A7008F03DFC0749E8
:107EE000054808F0A5F9FFF737FCFFF7A7FD0120CB
:107EF000BDE87040FFF792B924760020863607006F
:107F0000704710B5102104463EF01EFF204610BDFC
:107F1000034A0260002282604FF07E52C2607047C6
:107F2000BC36070008B5407908F0E0FCB0FA80F0F4
:107F3000400908BD402908D0802903D0202903D159
:107F4000022300E00123837170470323FBE738B568
:107F5000044602714171104601211D4608F056FC8D
:107F60006079002108F052FC29462046BDE83840DF
:107F7000FFF7E0BF38B505460C462846FFF7D2FFAD
:107F800018B9204608F0E8FBF7E738BD2DE9F041C5
:107F900000210446FFF7EEFF72B6012221796079D5
:107FA00008F0CEFC012221790646607908F0C8FC71
:107FB000012205462179607908F0C2FC002780463D
:107FC000A379BB4209D90121207908F05FFC002187
:107FD000207908F05BFC0137F2E762B6280240EA3C
:107FE000064040EA080046F3C01640EA0660BDE8D5
:107FF000F081F8B506460F46144608F09BFB05468F
:1080000008F098FB401BB84207D23046FFF78AFFC2
:1080100020B9204608F0A0FBF2E70020F8BDF8B533
:10802000002406460F462546BC4208D03046FFF7DE
:10803000ADFF0544002008F08FFB0134F4E795FB09
:10804000F4F0F8BD10B50446FFF7E9FFA368C01AC5
:1080500047F014FA10BD70B50646FFF7F3FF04466B
:10806000F0680D4647F01CFA02460B4620462946AA
:1080700047F098FB47F03CFD70BD10B50446FFF794
:10808000CEFFA06010BDC160704780687047704728
:1080900010B55C2104463EF057FE204610BD00009E
:1080A0000A4A02601F210022C0E90921C0E90B220F
:1080B0008286C0E90E220264A0F8442080F846209F
:1080C000C0E91222C0E91522704700BFCC36070074
:1080D00000231F22C0E90A23036380F83530C0E97A
:1080E0000E33036480F84630C0E91233C0E915331B
:1080F00070478B6A8362CB6AC3620B6B036391F830
:10810000343080F8343091F8353080F835308B6B6E
:108110008363CB6BC3630B6C0364B1F84430A0F88A
:10812000443091F8463080F846308B6C8364CB6CD9
:10813000C364B1F85030A0F850304B6D43658B6D7F
:108140008365704708B5FFF7D4FF08BD70B50546D5
:1081500086B068460E4603F059FCEC6C6846002C6D
:10816000CCBF0234002403F090FC0230241AA86A29
:10817000241808D4AC62AE64684603F086FCE86458
:10818000012006B070BD0020FBE710B5036C1BB1E9
:1081900090F8464084B90233941C1B1B846A1B1957
:1081A00058BFC0E90F124FF000045BBF80F8464093
:1081B00083622046012010BD0433EDE730B5046C26
:1081C0001CB190F846508DB902341D1D641B856AA0
:1081D00064195FBFC0E90F230123A0F8441080F8A1
:1081E000463056BF84620020184630BD0434ECE7A8
:1081F00030B5846D002CCCBF043400241D1D641BDD
:10820000856A64195DBFC0E91523A0F85010846227
:10821000002058BF012030BD70B50546806B0E466A
:1082200088B1047814B149F026FA841C304649F02C
:1082300022FA0230241AA86A24185DBFAC62AE6329
:108240000120002070BD0446F0E790F83530826AC6
:10825000002B0CBF6FF0020300239B185FBF8362EB
:10826000012380F8353080F8341054BF18460020C0
:10827000704704307047406A704790F83500704787
:1082800038B50446406AC0F11F039342154608DB27
:108290000430204448F0F2FA626A2A446262012003
:1082A00038BD0020FCE770B50446406A0E461D4606
:1082B00011460233C0F11F029A420FDB23186A1CD9
:1082C0001A71821C0630626220445E712A4648F0B0
:1082D000D5FA636A2B446362012070BD0020FCE77D
:1082E00070B586B00546684603F090FB684603F01B
:1082F000CCFB022804466846CCBF0626022603F0C3
:10830000C2FB2346024631462846FFF7CCFF06B0A3
:1083100070BD13460A46FF21FFF7C5BF30B589B0CF
:10832000054610461C46ADF800101A4601460DF1F0
:10833000020048F0A3FAA31C6A46FF212846FFF773
:10834000B2FF09B030BD30B589B0054610461C46B5
:10835000ADF800101A4601460DF1020048F08EFA01
:10836000A31C6A4616212846FFF79DFF09B030BDC1
:1083700007B501238DF807100DF107021946FFF725
:1083800092FF03B05DF804FB70B5054610460E463B
:10839000144649F070F92246034631462846BDE8A6
:1083A0007040FFF780BF70B5054608460C4649F09F
:1083B00062F91D2807D9224628461D230821BDE859
:1083C0007040FFF770BF224628460921BDE8704083
:1083D000FFF7DABF38B5C16A00230546436229B109
:1083E000026B1AB1BDE83840FFF74ABF95F8353047
:1083F0007BB395F834102846FFF7BAFF0446A96C02
:1084000021B12846FFF76CFF0440E4B2E96B61B18B
:108410002B6C53B195F84620EAB10A462846B5F8C8
:108420004410FFF77BFF0440E4B26A6D42B1AB6DCC
:1084300033B1B5F850102846FFF785FF0440E4B289
:10844000A96B21B12846FFF7AEFF0440E4B22046F5
:1084500038BD0124D3E71A462846FFF75AFFE2E762
:108460000C4B10B504460360406838B100F08EFA3A
:1084700020B9606810B103685B689847A06838B19C
:1084800001F001F820B9A06810B103685B68984753
:10849000204610BDDC36070010B50446FFF7E0FFAC
:1084A00020460C213EF050FC204610BD064B10B576
:1084B000C0E9003100230446836011B1084600F092
:1084C00060FA204610BD00BFDC360700064B10B531
:1084D000036000230446C0E9013111B1084600F0F1
:1084E000CDFF204610BD00BFDC3607002DE9F3416B
:1084F0000446542098460E4617463EF0F9FB9DF878
:1085000020300093054643463A46314600F012FBC0
:1085100029462046FFF7CAFF204602B0BDE8F08199
:1085200010B4446824B120465DF8044B00F042BA10
:10853000806818B15DF8044B00F0CABF5DF8044BC9
:108540007047406870477047024B186803681B69A2
:10855000184700BF7C3A0700024B186803685B6944
:10856000184700BF7C3A070010B4054B01791B681F
:108570001A685469421D184623465DF8044B184793
:10858000D038070010B50B4B0446186821790368F2
:10859000621D9B6A98474FF6FF739842014606D0CA
:1085A000054B18680268BDE81040926A104794F9BC
:1085B0004B0010BDD03807007C3A070010B54C21A5
:1085C00004463EF0C1FB204610BD000010B58AB045
:1085D0004B7903938B790293CB7901930B7A0093B8
:1085E00004464B7A8A7A054905A848F0A5FF05A9F3
:1085F000204607F0A7FF20460AB010BDE43607006A
:1086000007B500230622694605300093ADF8043013
:1086100048F026F9003018BF012003B05DF804FBD4
:1086200008B502790B799A4208D106220531053046
:1086300048F016F9B0FA80F0400908BD0020FCE7C8
:1086400010B50A4B0446186803681B6998472368ED
:1086500020461B6A984740B1054B2179186803688A
:10866000621D5B6BBDE81040184710BD7C3A0700E7
:10867000D038070008B502790B799A4208D1062252
:108680000531053048F0ECF8003018BF012008BD76
:108690000120FCE7064A02607F210022C2720273B9
:1086A00080F84B10C0F80520A0F80920704700BFE3
:1086B0000C37070010B501710021C1720173064C1F
:1086C00004607F2180F84B101168C0F80510928873
:1086D000A0F8092010BD00BF0C370700F8B50F4601
:1086E0001249064607F02EFF397B0024A1421ADD0D
:1086F0003B19A21C5D7B9B7B083B012B05F1FF35E1
:108700000FD82946304607F0F1FE0F343C440027CD
:10871000BD4208DD14F8011B304607F070FF013739
:10872000F6E7AC18E2E73046F8BD00BF347A070040
:108730002DE9F04F85B0884622490192834607F023
:1087400001FF0024A14698F80C30A34235D908EB6C
:108750000403671CFFB25E7B08EB07035B7B9A1E7A
:10876000012A25D9063B012B24D8102505FB05F34A
:108770000234009358FA84F44FF0000A731EEAB2F0
:10878000534517DD019989450CD1114604F10D00BF
:108790000393029203F07CF90146584607F0FDFE70
:1087A000DDE90223009909F10109AA440C44E7E735
:1087B0000225DBE73E44F4B2C5E7584605B0BDE804
:1087C000F08F00BF347A070010B500220446FFF78F
:1087D000AFFF204610BD08B5134602798A4208D182
:1087E00006221946053048F03BF8B0FA80F04009FF
:1087F00008BD0020FCE710B50446012000FA01F195
:10880000E1722273194604F10D0048F037F89DF922
:10881000083084F84B3010BD70B50D461146C27A51
:1088200042F010020446C272007B0D302A462044FA
:108830001E4648F023F8237B84F84B601D442573C3
:1088400070BDC37A13F0180F14BF012000207047C9
:108850000C4B10B504460360406838B100F096F840
:1088600020B9606810B103685B689847A06838B1A8
:1088700000F009FE20B9A06810B103685B68984752
:10888000204610BD4037070010B50446FFF7E0FF53
:1088900020460C213EF058FA204610BD064B10B57C
:1088A000C0E9003100230446836011B1084600F09E
:1088B00068F8204610BD00BF4037070070B5044679
:1088C00030200E463EF014FA3146054600F010FD09
:1088D00029462046FFF7E2FF204670BD0346406868
:1088E00008B100F045B8986808B100F0C5BD01486E
:1088F000704700BF347A0700406808B100F036BD09
:10890000704740687047000030B585B001250446C7
:108910000095042392B2FFF7E9FD074B2360002383
:10892000039304222B4603A92046FFF7F9FD034BCE
:108930002360204605B030BDA02F0700B02F0700F0
:1089400070470020704710B5202104463EF0FCF926
:10895000204610BD10B5054B044640F8043B03F01B
:1089600055F80023E361204610BD00BF50370700D3
:10897000043003F086B8043003F085B8043003F007
:1089800084B8C3690133C36118467047C369013BAA
:10899000C3611846704742F60300704790F8200004
:1089A000704790F821007047406A7047806A7047AE
:1089B000808D70472DE9F041436A9A42A8BF1A465C
:1089C0000446828592B2806A0F4647F057FF94F8BA
:1089D0002E300BB1636AA38594F8203098060FD52A
:1089E000A28E91070CD51F4B218E186803685D6D10
:1089F0000131A38DA26AAC4689B2BDE8F04160475F
:108A0000DA0609D5A38EDB0706D5164B218E18682A
:108A1000036801311D6DECE794F83230F3B1124B6D
:108A20001868036821465B6A9847104B1D682B68DD
:108A300001461E6BA38D3A462846B047094B18687D
:108A400003681B6B984748B9094B186803689B6813
:108A5000984718B12B6828465B6D9847A08DBDE8F4
:108A6000F08100BFD03807001C3A07008C370700A0
:108A7000D039070038B5054608460C4648F0FBFDDE
:108A8000214602462846BDE83840FFF793BF0186DD
:108A90007047008E7047008E013080B27047806B47
:108AA0007047836B994208D2C36B0022914202D077
:108AB0005B680132FAE718687047002070470000D1
:108AC00030B5114B03600B7903710B4601F149047A
:108AD00053F8052FC0F805209B88A0F80930CB7A01
:108AE000C3720B7B037300F10D0201F10D0353F808
:108AF000045B42F8045BA342F9D11B88138091F90F
:108B00004B3080F84B3030BD0C37070038B5044689
:108B100008200D463EF0ECF80023C0E900536368DE
:108B20002BB960602368A0600133236038BDA3685F
:108B30005860F7E770B504461D461646FFF70AFF72
:108B4000B5F5007F194B23602B46A8BF4FF4007387
:108B5000002163629DF810302684A18584F82E30B0
:108B60002163A186C4E90E112164102204F144009E
:108B700047F0ACFE16F0300F11D02C203EF0B8F8C4
:108B80000B490646022304F1340200F0D7F83046C0
:108B9000FFF7F7FE314604F13800FFF7B7FF28462C
:108BA00047F0FCFDA062204670BD00BF6C37070097
:108BB0005C37070070B50446406800252368AB4267
:108BC00006D9466808213EF0BFF801353046F5E782
:108BD0000023C4E90033A36070BD0000154B70B5DD
:108BE000044603600025A36B9D4212D2E36B002272
:108BF000954202D05B680132FAE71E683046FFF703
:108C0000C5FE20B91EB1336830465B689847013510
:108C1000E9E704F138052846FFF7CCFFA06A08B160
:108C200047F0C4FD2846FFF7C5FF2046FFF788FE42
:108C3000204670BD6C37070010B50446FFF7CEFF25
:108C4000204654213EF080F8204610BDF0B5C56C9A
:108C500097B0044617461E467DB103A8FFF730FFC4
:108C600021466846FFF722FC694603A8A8476846E4
:108C7000FFF7F6FB03A8FFF766FCA16A1C9A3944CC
:108C8000304647F0FBFD17B0F0BD70B504460E4608
:108C90001146012280F8332096B01A46FFF78AFE6B
:108CA000256D85B1314603A8FFF70AFF21466846C6
:108CB000FFF7FCFB694603A8A8476846FFF7D0FB0F
:108CC00003A8FFF740FC16B070BD30B5838E02F0EC
:108CD0000302934297B0044617D08286002A0CBF45
:108CE00044224022024455687DB103A8FFF7E8FE04
:108CF00021466846FFF7DAFB694603A8A84768469D
:108D0000FFF7AEFB03A8FFF71EFC17B030BD4FF412
:108D10002450704710B5034B03600446FFF710FE64
:108D2000204610BD8037070010B50446FFF7F2FF5C
:108D300020462C213EF008F8204610BD70B50446B0
:108D40001D461646FFF706FE064B2360B5F5007F6D
:108D5000A8BF4FF400750023266265622385204674
:108D600070BD00BF80370700406A7047006A7047D7
:108D700001857047024B186803681B69184700BFDC
:108D80007C3A0700024B186803685B69184700BF0C
:108D90007C3A070010B5064B186803681B699847B2
:108DA000044B18680368BDE810401B6B184700BFF0
:108DB0007C3A0700D038070010B5064B18680368E6
:108DC0001B699847044B18680368BDE81040DB6BCB
:108DD000184700BF7C3A0700D0380700024B1868DC
:108DE00003689B6C184700BFD03807000C307047F1
:108DF00068307047024B186803681B69184700BF4A
:108E00001C3A0700024B186803685B69184700BFEB
:108E10001C3A0700024B186803689B69184700BF9B
:108E20001C3A0700024B186803681B69184700BF0B
:108E3000D0390700024B186803685B69184700BF08
:108E4000D0390700024B186803685B6A184700BFF7
:108E5000D039070010B5074B0446186803681B6932
:108E60009847054B19680B682046DB6C98472046ED
:108E700010BD00BF7C3A0700D038070010B5074B83
:108E80000446186803681B699847054B19680B6806
:108E900020469B6A9847204610BD00BF7C3A0700D9
:108EA000D0390700024B18680368DB6A184700BF17
:108EB000D0390700024B186803689B69184700BF48
:108EC000503C0700024B18680368DB69184700BF75
:108ED000503C0700024B186803681B6B184700BF23
:108EE000D0390700024B18680368DB68184700BFD9
:108EF000D0380700024B186803681B6A184700BF88
:108F0000503C0700024B186803685B6A184700BFB3
:108F1000503C0700024B1B68C3F8F010704700BFBD
:108F20007C3A0700024B1B68C3F8F810704700BF7B
:108F30007C3A0700024B1B68C3F8F410704700BF6F
:108F40007C3A0700024B1B68C3F8EC10704700BF67
:108F50007C3A0700024B1B68C3F8FC10704700BF47
:108F60007C3A0700024B1B68C3F80011704700BF32
:108F70007C3A0700024B18680368D3F89C30184706
:108F80007C3A0700024B18680368D3F8A0301847F2
:108F90007C3A0700F0B52A4B1D682B6887B0044661
:108FA0009B6828469847064620B923682046DB6818
:108FB00098470DE0642007F0CFFB2B6828469B699B
:108FC0009847064638B123682046DB689847002654
:108FD000304607B0F0BD05AA2B6801920DF11202D0
:108FE0000092DF6904AA0DF10E030DF10D01284670
:108FF000B8470028D9D12B684FF0FF32D96A2846EC
:109000006FF0404388470028CFD12B6840F2FF32F1
:10901000196B28460023884706460028D3D12B68C1
:109020000DF10F025B6B0DF11601284698470028E1
:10903000BBD1044B186803689B6898470126C7E7B3
:109040007C3A07001C3A07000A4B10B50446186822
:109050000368DB689847084B18680368DB68984723
:1090600004F10C00FFF734F804F16800BDE810408B
:10907000FFF72EB81C3A07007C3A070010B58CB0F9
:1090800000230593ADF81830104B044618680368A8
:1090900005A91B6A98479DF8143003939DF8153075
:1090A00002939DF8163001939DF8173000939DF8B8
:1090B00019209DF81830064907A848F03DFA07A97D
:1090C000204607F03FFA20460CB010BD7C3A07005E
:1090D000E43607000C30FFF739B870B50368044672
:1090E00008469D6AFFF7FAFB2B4601462046BDE87D
:1090F000704018470C30FFF77BB80C30FFF745B8CD
:109100000C30FFF75BB86830FFF786B86830FFF7C0
:1091100019B810B500F10C042046FFF713F82046EB
:10912000FFF7ABF828B920460621BDE81040FFF74D
:109130008CB810BD2DE9F74300F10C0504466834E6
:109140002846FFF747F92046FFF744F90E4B1E6803
:1091500033682846DF68FFF78CF880462846FFF71B
:109160008AF805462046FFF784F881462046FFF737
:1091700082F8C0B200904B46EAB241463046B8474A
:1091800003B0BDE8F08300BFD03907007FB5094BBD
:109190001C682368164601A89D6907F0F4F9324659
:1091A00001A92046A847044601A807F080F92046F7
:1091B00004B070BDD03907007FB5094B1C68236827
:1091C000164601A8DD6907F0DEF9324601A92046FE
:1091D000A847044601A807F06AF9204604B070BD0C
:1091E000D03907007FB5094B1C682368164601A8D3
:1091F0001D6A07F0C8F9324601A92046A84704466F
:1092000001A807F054F9204604B070BDD03907001A
:1092100002290BBF044B054B186818680BBF036885
:1092200003685B6B9B6D1847D0390700D038070087
:1092300038B50446084B44F80C3B05462046FEF77B
:109240002FFF05F16800FEF72BFF06212046FEF7F1
:10925000FCFF284638BD00BF9837070010B5054C05
:109260002046FFF7E5FF2046034A0449BDE81040C9
:109270003DF02FBBEC6700200060002081920200CF
:1092800010B5064B044640F8683BFEF700FF04F1BA
:109290000C00FEF7FCFE204610BD00BF983707000B
:1092A00010B50446FFF7ECFF2046C4213DF04CFD0D
:1092B000204610BD10B50B4B19680B6894B001A87F
:1092C000DB6C984701A8FFF79BF948B101A8FFF7AD
:1092D00059F9044601A8FFF736F9204614B010BD2D
:1092E0007F24F7E7D03807004FF420507047000084
:1092F00010B50446FFF72EFB044B23600023C4E99E
:109300000833C4E90A33204610BD00BF64380700A3
:10931000018442847047008C7047408C7047406ADB
:109320007047436A994208D2836A0022914202D070
:109330005B680132FAE7186870470020704738B55B
:10934000044608460D46FFF71CFB08203DF0D0FC04
:109350000023C0E90053A36A2BB9A062636AE062EC
:109360000133636238BDE36A5860F7E710B504461D
:109370000846FFF7E6F8014620B12046BDE8104058
:10938000FFF7DDBF10BD70B50446406800252368B7
:10939000AB4206D9466808213DF0D6FC013530467F
:1093A000F5E70023C4E90033A36070BD10B504469F
:1093B0002430FFF7E8FF0023236210BD134B70B584
:1093C000044603600025636A9D4212D2A36A00220C
:1093D000954202D05B680132FAE71E683046FFF71B
:1093E000D5FA20B91EB1336830465B68984701351D
:1093F000E9E72046FFF7DAFF04F12400FFF7C3FF97
:109400002046FFF79DFA204670BD00BF6438070074
:1094100010B50446FFF7D2FF204630213DF094FC02
:10942000204610BD10B5044B044640F8043B07F03D
:109430003EF8204610BD00BF7838070010B504463E
:10944000FFF7F0FF204614213DF07EFC204610BDC2
:1094500038B504462546074B45F8043B08461146F7
:1094600002F016FB0146284607F06CF80023236142
:10947000204638BD783807004068704703690133DB
:109480000361184670470369013B03611846704742
:1094900038B504461D46FFF7DBFF0C4B2360BDF8D3
:1094A0001030E382BDF814302383BDF81830638395
:1094B0004FF480720023A582C4E90733A284C4E973
:1094C0000A33C4E90C33204638BD00BF8838070092
:1094D0002DE9F0439846274B1E68336885B0044653
:1094E0000F469B6B818A30469146984718B90020F9
:1094F00005B0BDE8F0833368A18A5B6C30469847BD
:10950000033885B24D45A8BF4D462946E06947F06E
:10951000EDFEE0610028EAD0237E1A071CD5B8F1E1
:10952000000F19D003AA33680192EAB20092D3F86F
:109530006080628BA18A3B463046C0470028D7D066
:109540009DF80C30012BD2D02A463946E06947F00D
:1095500095F925620120CBE75B07C8D53368A18A5E
:10956000EAB20092D3F86480628B3B463046C04733
:10957000EAE700BFD0380700408B704738B5044693
:1095800008460D46FFF77AFF08203DF0B1FB0023A7
:10959000C0E90053E36A2BB9E062A36A2063013398
:1095A000A36238BD236B5860F7E770B50446406886
:1095B00000252368AB4206D9466808213DF0C4FB6C
:1095C00001353046F5E70023C4E90033A36070BDE0
:1095D00003688B4208D9436800228A4202D05B6844
:1095E0000132FAE71868704700207047F8B5054661
:1095F000134B45F8283B04460026A36A9E420ED230
:1096000031462846FFF7E4FF0746FFF73CFF20B945
:109610001FB13B6838465B6898470136EDE728463E
:10962000FFF7C3FFE06918B147F0C0F80023E3611A
:109630002846FFF7BAFF2046FFF7F4FE2046F8BDA4
:109640008838070010B50446FFF7D0FF20463821C0
:109650003DF07AFB204610BD70B50446036296B01B
:109660000D46C0691946164647F040FEE06110B944
:10967000206216B070BD01233146A384226A47F0F0
:10968000FDF8666B002EF4D0194B03932B798DF8FF
:1096900010302B4605F1490153F8052FCDF8112064
:1096A0009B88ADF81530EB7A8DF817302B7B8DF851
:1096B00018300DF1190205F10D0353F8040B42F8AF
:1096C000040B8B42F9D11B88138095F84B308DF831
:1096D000573021466846FEF7F9FE694603A8B047B1
:1096E0006846FEF7BDFE03A8FEF72DFFC1E700BFE9
:1096F0000C370700074B10B504460360806918B1AA
:1097000047F054F80023A3612046FFF78BFE204664
:1097100010BD00BF9838070010B50446FFF7EAFFF8
:10972000204620213DF010FB204610BD38B50446F0
:109730001D46FFF78DFE054B2360BDF81030E38218
:109740000023A582C4E90633204638BD98380700B7
:10975000034A02600022C0E90122C260704700BFD4
:10976000A838070038B5044608460D46FFF786FEC0
:1097700008203DF0BDFA0023C0E90053A3682BB9CF
:10978000A0606368E0600133636038BDE3685860DF
:10979000F7E7406870474368994208D2836800221F
:1097A000914202D05B680132FAE7186870470020E6
:1097B000704770B50446406800252368AB4206D95F
:1097C000466808213DF0C0FA01353046F5E7002330
:1097D000C4E90033A36070BD70B506460024736809
:1097E0009C4212D2B3680022944202D05B680132DC
:1097F000FAE71D682846FFF746FE20B91DB12B6821
:1098000028465B6898470134E9E7301DFFF7D1FF30
:1098100070BD000038B50446054B44F8043B0546CE
:10982000FFF7DAFF2046FFF7C4FF284638BD00BF28
:10983000A838070010B50446FFF7ECFF20461021BA
:109840003DF082FA204610BD38B504461D46FFF7AC
:10985000FFFD084B2360BDF81030E382A582064966
:1098600004F1180006F06EFE0023C4E90933E36238
:10987000204638BDB8380700347A0700808A704720
:10988000C08A7047406A7047436A994208D2836A27
:109890000022914202D05B680132FAE718687047F3
:1098A0000020704738B5044608460D46FFF7E6FD30
:1098B00008203DF01DFA0023C0E90053A36A2BB92C
:1098C000A062636AE0620133636238BDE36A586094
:1098D000F7E770B50446406800252368AB4206D917
:1098E000466808213DF030FA01353046F5E700239F
:1098F000C4E90033A36070BD154B70B50446036026
:109900000025636A9D4212D2A36A0022954202D0CA
:109910005B680132FAE71E683046FFF7B4FD20B9F4
:109920001EB1336830465B6898470135E9E704F1BA
:1099300024052846FFF7CDFF2846FFF7CAFF04F1AC
:10994000180006F0B4FD2046FFF76CFD204670BD00
:10995000B838070010B50446FFF7CEFF2046302187
:109960003DF0F2F9204610BDA0F8A8107047C0F8ED
:10997000AC1070472DE9FF41013A13F8014BD6B204
:109980000268CDE90233526C05460F4690470C2C15
:1099900002462968029B79D02FD8052C69D01AD8A5
:1099A000022C60D00BD8012C53D006230093D1F8A1
:1099B000DC600023224639462846B0476EE0032C7F
:1099C00054D0042CF1D10093D1F894403346394659
:1099D0002846A04762E0092C52D007D8062C4BD06D
:1099E000082CE2D10093D1F8A440EFE70A2C4DD027
:1099F0000B2CDAD1D1F8B4402DE0162C51D00FD871
:109A0000112C40D005D8102CCFD10093D1F8B840FC
:109A1000DCE7122C18D0132CC7D1D1F8C8401AE0BB
:109A20001D2C04D00CD8182C3FD01B2CBDD100937A
:109A3000D1F8D4803346224639462846C0472DE027
:109A40001E2C36D0522CB0D1CDE90063D1F8C460C1
:109A500020E0D1F88440324639462846A44604B076
:109A6000BDE8F0416047D1F88840F4E7D1F8904074
:109A7000F1E7D1F89C40EEE70093D1F8A040A5E7CC
:109A8000D1F8AC40E7E7D1F8C040E4E7CDE90063A6
:109A9000D1F8B060234639462846B04704B0BDE847
:109AA000F0810093D1F8CC4090E70093D1F8D040FA
:109AB0008CE7D1F8D840CEE700F18C034FF6FF7267
:109AC000B0F8B010914204D11C309842F8D1002077
:109AD00070470120704708B503689B6A98474FF6A6
:109AE000FF73C01A18BF012008BD000038B50A4B2B
:109AF0000446186803681B690D469847204604F120
:109B00008C03B0F8B020AA4204D01C309842F8D19F
:109B1000002038BD0120FCE77C3A070000F18C03EF
:109B200090F9C820002A04DB1C309842F8D10020AC
:109B300070470120704770B5002300F1B0041C2568
:109B400005FB03F2A65A8E4203D11044B0F8C000C0
:109B500070BD0133052BF3D11720F9E71FB5ADF820
:109B60000D200268009302248DF80C400323D2F8E4
:109B7000F04003AAA04704B010BD1FB5ADF80920FE
:109B8000ADF80B30069A0368009204248DF8084063
:109B900002AAD3F8F0400523A04704B010BD1FB5BA
:109BA000ADF80B30BDF81830ADF80920ADF80D3028
:109BB000079A0368009210248DF8084002AAD3F88F
:109BC000F0400723A04704B010BD1FB5ADF80B301F
:109BD000BDF81830ADF80920ADF80D30079A0368CC
:109BE000009208248DF8084002AAD3F8F040072319
:109BF000A04704B010BD012380F83C31704700003D
:109C00001FB5ADF80A309DF818308DF80C30084BB0
:109C10008DF8092001208DF80800186802AA036851
:109C20000092D3F8944004220523A04704B010BD4D
:109C30007C3A070001299CBF00EB8100C0F8542149
:109C400070471FB5ADF80D20026800930A248DF807
:109C50000C400323D2F8F04003AAA04704B010BD83
:109C6000F0B500231C2500F1B00605FB03F4375BBB
:109C70008F4204D00133052BF7D100200FE0B4341C
:109C80000444911D14F8015B01F801599142F9D186
:109C90001C2202FB0303012093F8B3300B70F0BDCC
:109CA00010B5054B03600446D0F8400108B146F0FA
:109CB0007DFD204610BD00BFDC38070010B504460E
:109CC000FFF7EEFF20464FF4AE713DF03DF8204621
:109CD00010BD00002DE9F0431D4B1D688BB006231D
:109CE0000F460421002490462A680097CDE9071307
:109CF000C821CDE905410C21CDE90331CDE901842D
:109D00000646D2F854902346302260212846C847A0
:109D1000D8B906F00FFD044606F00CFDD6F8AC30BD
:109D2000001B98422B680DD21B6928469847336860
:109D300042465B6B3946304698470028ECD00BB062
:109D4000BDE8F083DB6D284698470020F7E700BFA9
:109D50007C3A0700F8B503689B6A044698474FF6BB
:109D6000FF73984206461ED0104B1D682B680146B3
:109D7000D3F898302846984706F0DCFC074606F0F2
:109D8000D9FCD4F8AC30C01B98420CD22B682846C2
:109D90001B699847236831469B6B204698470028EB
:109DA000EDD10120F8BD0020FCE700BF7C3A0700A0
:109DB0002DE9F3410546089CA5F848111078C5F82F
:109DC0004C41013085F84A01002085F850011948BE
:109DD000066830680092D0F89480DBB204223046E6
:109DE0000F46C04724B306F0A5FC044606F0A2FCCB
:109DF000D5F8AC30001B984214D2336830461B694A
:109E000098472B6839469B6B2846984750B195F880
:109E100050010028EAD04FF6FF73A5F8483102B090
:109E2000BDE8F0814FF6FF73A5F848310020F6E752
:109E30002046F4E77C3A07002DE9F047994603688D
:109E40009B6A044698474FF6FF739842064604D132
:109E50004FF000084046BDE8F08723680146D3F87C
:109E6000E0302046984780460028F1D0002504F1D4
:109E7000B0031C2202FB05F7D95BB14234D1274461
:109E8000D7F8C4303BB910203CF032FF8246FFF7D0
:109E90005FFCC7F8C4A01C2303FB0545D5F8C450DC
:109EA000002DD5D02846B9F1000F21D1FFF794FC41
:109EB00023682A46D3F8E47031464B462046B8471B
:109EC0000028C5D023682A46D3F8E830314620461A
:109ED00098470028BCD023682A4631462046D3F84C
:109EE000EC30BDE8F04718470135052DC2D1AFE78A
:109EF000FFF74FFC002782465745D9DA39462846F6
:109F0000FFF749FCFFF7B8FA494647F079FB00280C
:109F1000A0D00137F0E7F0B5C5B004469DF8285150
:109F2000ADF80D200F4612218DF80C102A46194667
:109F30000DF10F0046F0A2FC23684B9A0092D3F873
:109F4000F06003AAEB1C39462046B04745B0F0BD8F
:109F5000F0B5C5B004469DF82851ADF80D200F4668
:109F600052218DF80C102A4619460DF10F0046F0CB
:109F700085FC236800220092D3F8F06003AAEB1C52
:109F800039462046B04745B0F0BD10B500F1C903D1
:109F900000F2551033F8194C8C4201BF1C88148014
:109FA0009C7894701C338342F4D1002010BD0000D3
:109FB0002DE9F04196B004461C9E1F4600201C234C
:109FC00004F1B00C4FF6FF7E03FB00F53CF8058072
:109FD000F04505D001300528F6D116B0BDE8F08176
:109FE0006019172380F8B220A0F8C030A0F8B01094
:109FF00080F8B37005F1B4033168E150E218B3881A
:10A0000093800DF10901721E731D12F8010F01F802
:10A0100001099A42F9D10F4B1868BA35036804EB6D
:10A020000508D3F89030424601A9984710B960510D
:10A03000A8F80400D4F85441002CCED0324639465A
:10A0400003A8FEF737FB03A8A04703A8FEF77BFA97
:10A05000C3E700BF7C3A07002DE9F04106460F46F2
:10A06000904600F1B405002415F8013CBB420CD128
:10A0700006224146284646F0F3FB30B91C2303FB79
:10A080000464B4F8B000BDE8F0810134052C05F19A
:10A090001C05E9D14FF6FF70F5E72DE9F0410646C2
:10A0A0000F46904600F1B405002415F8013CBB4270
:10A0B0000CD106224146284646F0D2FB30B91C237B
:10A0C00003FB0464D4F8C400BDE8F0810134052C1E
:10A0D00005F11C05E9D10020F6E738B54FF6FF720F
:10A0E00004460B460020B3F8B050954203D093F8D5
:10A0F000B250012D08D00130052803F11C03F2D124
:10A100002046FEF7C7FA0AE01C23434303F1B402DA
:10A110000B440A44204693F8B310FEF7CBFA2046CE
:10A1200038BD98B5B0F8A820D31DEC46DB08ACEBE1
:10A13000C30300AF9D460368D3F88C406B46A0472D
:10A14000003018BF0120BD4698BD00002DE9F04F3A
:10A1500087B002AF9146DFF890A0B96000F18C02A1
:10A160000546FA601C460026B5F8B080C7F804D052
:10A170004FF6FF7398452BD0B5F8C030DA1D69460D
:10A18000D208A1EBC202033B95469BB2A4B29C420B
:10A190004FF01B0228BF1C468DF80820BA68ADF8A6
:10A1A0000920494622460DF10B0046F067FBDAF81C
:10A1B00000000DF1080B0268CDF800B0E31CD2F8E6
:10A1C00094B0DBB204224146D847D7F804D0013618
:10A1D000FB681C359D42C7D1002E14BF20460020CD
:10A1E0001437BD46BDE8F08F7C3A07002DE9F04FEB
:10A1F00087B002AFC7E9002100F5A072064600F162
:10A20000B405BA601C464FF0000935F804ACC7F835
:10A210000CD04FF6FF739A4542D0AB89DA1D6946E0
:10A22000D208A1EBC202033B95469BB2A4B29C426A
:10A230004FF01D0228BF1C468DF808207A68ADF843
:10A240000920396822460DF10B0046F017FB002368
:10A2500086F83C31194BD3F800800DF1080BD8F883
:10A260000020CDF800B0E31CD2F894B0DBB2042299
:10A2700051464046D84796F83C316BB9D8F8003083
:10A2800040461B699847336815F8011C5B6B2A46EA
:10A29000304698470028EED1D7F80CD009F10109D3
:10A2A000BB681C35AB42B0D1B9F1000F14BF2046DA
:10A2B00000201437BD46BDE8F08F00BF7C3A070090
:10A2C0002DE9F04F89B002AF042BFA603A6CC7F861
:10A2D00008D0C7E9041014880AD003680422009249
:10A2E000D3F8DC502346A8471C37BD46BDE8F08FA5
:10A2F000FB6807336A46DB08A2EBC3039D460DF1FA
:10A30000080805238DF80830002388F80130484BF1
:10A31000013CD3F800A0A4B20225DAF80030504680
:10A32000DB699847844258D23B6C5B88A34254D97E
:10A33000DAF8003021461B6A5046984703689B684C
:10A340008346984742F6030301349842A4B255D19C
:10A350005846FEF7A0FB231A59425941DBF800305A
:10A3600079609B68584698477968024611B9B0F5FC
:10A37000245F45D15846C7E90012FEF7FFFAD7E936
:10A380000012022806460CBF0123022398F80100A0
:10A3900008B988F8013098F8010098421DD105F1FC
:10A3A00002091FFA89F928F8054008EB090311B9D9
:10A3B000B2F5245F27D158467B60FEF7DCFA7B6854
:10A3C00001463246184646F059FA09EB0605ADB289
:10A3D0000236FB682E44B3429FDA022D1CD17A6903
:10A3E0003B6C12681B880A210091D2F8DC40D7E947
:10A3F00004100422A047D7F808D075E70021ADE784
:10A4000002260123C2E7DBF8003058469B689847D4
:10A41000043528F80900DAE7064B18680368CDF818
:10A420000080D3F894403969EBB20422A047E2E7F8
:10A430001C3A07007C3A07002DE9F04F89B002AFC3
:10A44000052B3E6CC7F808D08346C7E90321348842
:10A450000BD8036804220092D3F8DC50062223466E
:10A46000A8471C37BD46BDE8F08FFA680732694639
:10A47000D208A1EBC202954607228DF80820B288C7
:10A48000B2F5205F0DF1080A0DD0DBF8002033880B
:10A490000A210091D2F8DC40396906225846A047CB
:10A4A000D7F808D0DDE7063B9BB27B61274B013C28
:10A4B000D3F80090B31DA4B201257B60D9F8003019
:10A4C0004846DB699847844232D27388A3422FD929
:10A4D000D9F8003021461B6A4846984703689B68B4
:10A4E00080469847B38883421BD14046FEF746FA20
:10A4F0007B69984215D14046FEF73DFA7A69796842
:10A5000046F0AEF968B94046FEF705FF2AF80500A7
:10A510004046FEF702FFAB1C9BB204352AF803004D
:10A52000ADB2FA68EB1C9A4202DD0134A4B2C5E771
:10A53000012DAAD0064B18680368CDF800A0D3F807
:10A5400094403969EBB20422A047A9E71C3A0700FE
:10A550007C3A07002DE9F04F89B002AF062BBA60B4
:10A560003A6CC7F80CD081468B46158804D1938885
:10A57000A3F52053012B0FD9D9F8003010220092F7
:10A58000D3F8DC402B4659464846A047D7F80CD0B4
:10A590001C37BD46BDE8F08FBB6807336A46DB0851
:10A5A000A2EBC3039D4602AE11238DF808300023B1
:10A5B0007370364B013DD3F800A0ADB20224DAF837
:10A5C00000305046DB699847854247D23B6C5B8838
:10A5D000AB4243D9DAF8003029461B6A5046984707
:10A5E0003B6C02689B887B619268804690477B69E0
:10A5F000834230D14046FEF7C1F9022803460CBF22
:10A60000062314233B61737878610BB93B6973703F
:10A6100073783A69934221D14046FEF77CFE30536D
:10A620004046FEF77AFEA31C9BB20434A4B2F0525B
:10A63000331940467B60FEF79EF97B687A690146D4
:10A64000184646F01BF97B69BA681C443B69A4B202
:10A6500023449A4202DB0135ADB2B0E7022C09D1A6
:10A660003B6CD9F800201B880A210091D2F8DC400D
:10A67000102288E7064B186803680096D3F89450B8
:10A680000422E3B25946A84780E700BF1C3A0700FE
:10A690007C3A07002DE9F04F89B002AF91463A6C41
:10A6A000C7F808D0062BC7E9031015880BD003683C
:10A6B00004220092D3F8DC4008222B46A0471C3726
:10A6C000BD46BDE8F08F09F107036A46DB08A2EB3F
:10A6D000C3039D460DF1080809238DF808300023B7
:10A6E00088F801306D4B1B687B613B6C013D043386
:10A6F000ADB202247B607B6978691B68DB6998478F
:10A70000854280F083803B6C5B88AB427ED97B695D
:10A7100078691B6829461B6A984703689B68064648
:10A7200098473B6C9B888342336805F1010A1FFA06
:10A730008AFA9B6830467AD1984742F603039842DA
:10A740003DD13046FEF7A7F9824535D03046FEF7B9
:10A7500015F998F80120022803460CBF4FF0070BAB
:10A760004FF0150B0AB988F801B098F801203B604A
:10A770005A454BD128F804A03046FEF70FF9A21C29
:10A7800092B2023508F80200E21C92B2304628F874
:10A790000250FEF7F0F805343B68A4B208EB04055C
:10A7A0001A460146284646F069F83B681C44A4B2A4
:10A7B000A344D9452ADB55460135ADB29BE7336842
:10A7C00030469B68984742F602139842F4D128F825
:10A7D00004A03046FEF7C8FA0234A4B2A9EB04097B
:10A7E00080B21FFA89F9814528BF8146304608EBBF
:10A7F0000405FEF7BBFA4A4601464C44284609F1D7
:10A80000020946F03BF8A4B288F80190022C38D136
:10A810003A693B6C12681B880A210091D2F8DC402F
:10A82000D7E903100822A047D7F808D047E7984790
:10A8300042F603039842BFD13046FEF79FF8022844
:10A840008346B9D13046FEF796F85A4601467868F5
:10A8500046F006F80028AFD128F804A03046FEF7ED
:10A86000A7F80234A4B2A9EB04091FFA89F980B24F
:10A87000814528BF8146304608EB0405FEF796F86F
:10A88000B9E7074B18680368CDF80080D3F89450F7
:10A89000F968E3B20422A847C6E700BF1C3A0700E4
:10A8A0007C3A07002DE9F043012B97B0044602AF34
:10A8B0000E461546E8460BD0036804220092D3F8F2
:10A8C000DC4018220023A0475437BD46BDE8F08382
:10A8D000B0F83E1141B33B6F1B78DB0724D5224B08
:10A8E0001868036801391B6A9847002281461C21B9
:10A8F00004F1B00001FB02F330F803C0B4452ED1DF
:10A9000003F1B4022344224493F8B310381DFDF739
:10A91000D1FE4846B4F84431D4F84021391DFEF741
:10A92000B4F9381DFDF70FFE00230735A4F83E31BA
:10A93000A4F84431ED086B46A3EBC5039D461923EB
:10A940008DF80830094B186802AA03680092D3F802
:10A950009440042201233146A047C546B4E70132A2
:10A96000052AC7D1E0E700BF1C3A07007C3A070080
:10A970002DE9F04F87B002AF032B04460D467A60F5
:10A980001E46C7F80CD00DD8036804220092D3F8F5
:10A99000DC4016220023A047D7F80CD01437BD4660
:10A9A000BDE8F08FBB6B1B883B811FFA83F8BB6B44
:10A9B000B3F802B04B4BD3F80090D9F800304846BA
:10A9C000DB69984708F1FF318BB2834206D92368CF
:10A9D0000A220092D3F8DC60434620E0D9F8003028
:10A9E00048461B6A984703689B688146984742F629
:10A9F0000303984202D023680B22EAE74846FEF799
:10AA00004AF840458246F6D14846FDF7C7FF03079E
:10AA10000AD4236803210091D3F8DC605346162240
:10AA200029462046B047B7E7B4F83E31E3B9484677
:10AA30003B60FDF7B9FF01468246D4F8400146F07D
:10AA400055FC3B683A89A4F83E21C4F84001A4F8BB
:10AA500044315246194645F039FFB4F844315B455C
:10AA600007D023680722B4E75345F6D023680E21A8
:10AA7000D1E7331F5FFA83FA0BEB0A024846BA604C
:10AA8000FDF792FFBA6880B28242EADCBB6BD4F871
:10AA900040015246191D584445F0F0FEB4F84421D7
:10AAA000B96B0AEB0203A4F844317B6807336A46AA
:10AAB000DB08A2EBC3039D4617238DF8083032460E
:10AAC0000DF1090045F0DAFE074B186802AC026888
:10AAD0000094731CD2F89440DBB204222946A047AC
:10AAE0005AE700BF1C3A07007C3A07002DE9F04FF7
:10AAF0009BB0012B8A46039263D9249A023B1688A5
:10AB0000059300F18C0204460292B4F8B03053452C
:10AB100042D1D4F8C450002D42D02846FEF739FE69
:10AB20004FF000098046C14536DA49462846FEF70F
:10AB300032FE0746FEF7A2FEB0422AD23846FEF7A2
:10AB40009FFEB04225D33846FEF79CFE249B02337D
:10AB5000804604F1B4090025049345451CDA2946D2
:10AB60003846FEF791FE8346FEF706FDB0420ED151
:10AB70004A4694F8B31007A8FDF79CFD5846DDE956
:10AB8000042307A9FEF768FD07A8FDF7DCFC0135E3
:10AB9000E3E709F10109C6E7029B1C349C42B4D1EA
:10ABA000039B1D2B0DD11E238DF81C30064B1868FE
:10ABB00007AA03680092D3F8944004220123514667
:10ABC000A0471BB0BDE8F08F7C3A07002DE9F04F9D
:10ABD0008FB002AFC7E90021FB60B0F8A830F96878
:10ABE00007336A46DB08A2EBC30307F118059D464D
:10ABF0008346284600F00AFF0DF108090124BD60D4
:10AC0000DBF80030CDF804904FF420520092D3F8D6
:10AC1000BC5079684FF6FF7322465846A847054650
:10AC200020B199F80030112B04D001203437BD46F3
:10AC3000BDE8F08F99F801307B61A3F1040802238D
:10AC40005FFA88F809F102063B614FF6FF7A3B692B
:10AC5000AB4204DB4FF6FF739A45D1D0E5E7FB68C2
:10AC6000E3B930203CF044F83146728831F8043BB7
:10AC7000009204464246FEF7E7FD21463868FEF79B
:10AC800071FD7488D7E904320134A4B2002C134456
:10AC900008BF4FF0000A3B611644D8E7B86800F0DF
:10ACA000F4FE4045EDD1B86800F0EDFE42460146A5
:10ACB000301D45F0D5FD0028D3D0E2E72DE9F04F57
:10ACC0008DB0B0F8A83004AFC7E9042107336A4655
:10ACD000DB08A2EBC3039D4682463869FEF759FDA7
:10ACE0000DF11009F8604FF00008FB6898454ADA4A
:10ACF00041463869FEF74FFDB861FEF7BFFD0646D5
:10AD0000B869FEF7BDFDB860DAF80030CDF8049000
:10AD100042F603020092D3F8A8407969BB68324634
:10AD20005046A047054678B399F80030092B27D143
:10AD300099F80130FB61053BDBB27B6009F102044D
:10AD40004FF0020BAB45DFDA38203BF0D1FFB4F80F
:10AD500003300293A37801932388009306467B690E
:10AD60007A68611DFEF794FB3146B869FEF79AFDDB
:10AD7000B4F80360FB690136B6B29B441C44E1E7BA
:10AD800008F10108B1E701202437BD46BDE8F08F86
:10AD90002DE9F04F8FB0B0F8A83002AF0733C7E904
:10ADA0000421DB086A46A2EBC3039D4602AB824640
:10ADB0003869FB62FEF7EDFC4FF0000BF860FB68B2
:10ADC0009B456CDA59463869FEF7E5FC7862FEF778
:10ADD00057FDB860786AFEF755FD431E38620026BD
:10ADE0007B603B6A9E4257DA3146786AFEF74CFD3B
:10ADF0007B68F8619E4248D0711C786AFEF744FD7A
:10AE00000546F869FEF7B8FB013084B2002D3ED04C
:10AE10002846FEF7B1FBB862BB6AA3423AD3DAF820
:10AE20000030FA6A0092D3F898507969BB6A2246DA
:10AE30005046A847054698B3FB6A1B78052B29D1D5
:10AE4000FB6A93F801904FEA8903BB61FB6A4FF0FC
:10AE5000020903F10208A945E1DA20203BF048FF8E
:10AE60004146044631F8023B00937B690222FEF71B
:10AE70005DFC2146F869FEF781FBB8F80040BB692C
:10AE80000134A4B299449844E5E70025B9E7BB68CA
:10AE9000BB62C1E70136A4E70BF1010B8FE701208C
:10AEA0003437BD46BDE8F08F70B5002300F1B00423
:10AEB0001C2505FB03F2A65A8E4204D00133052B54
:10AEC000F7D1002003E0104490F8C800C00970BD1D
:10AED000F0B5022A85B004460D4609D00368042265
:10AEE0000092D3F8DC4002220023A04705B0F0BD59
:10AEF0001B88B0F8A8209A4228BF1A46B030002319
:10AF00001C2606FB03F1475AAF4212D10C44A4F8A9
:10AF1000C020ADF80D20094A032310688DF80C30CD
:10AF2000026803A90091D2F8944029460422A04760
:10AF3000DCE70133052BE4D1EBE700BF7C3A0700E7
:10AF4000F0B5002300F1B0051C2606FB03F42F5BCF
:10AF50008F4204D00133052BF7D1002003E02044B9
:10AF600080F8C8200120F0BD042A15D1B0F848218E
:10AF70008A4211D190F84A211978013A8A420BD1BC
:10AF8000D0F84C2101211170D0F84C211B68C2F877
:10AF90000130052380F850317047022AF0B51ED1E8
:10AFA000002200F1B0051C2606FB02F42F5B8F4245
:10AFB00016D104441A88A4F8C020B0F848218A4267
:10AFC0000DD190F84A21032A09D1D0F84C110A700A
:10AFD000D0F84C111B88A1F8013080F85021F0BD49
:10AFE0000132052AE0D1E8E7012A38B504461546C2
:10AFF00013D9B0F8480188420FD194F84A010528C6
:10B000000BD1D4F84C110870D4F84C01194601301A
:10B01000013545F033FC84F8505138BD012A38B56C
:10B020000446154613D9B0F8480188420FD194F868
:10B030004A0111280BD1D4F84C110870D4F84C01F6
:10B0400019460130013545F019FC84F8505138BDDE
:10B0500038B50446B0F84801884215460FD194F837
:10B060004A110B290BD1D4F84C010170D4F84C01D2
:10B0700019460130013545F001FC84F8505138BDC6
:10B0800038B5044615469AB1B0F8480188420FD148
:10B0900094F84A0109280BD1D4F84C110870D4F85F
:10B0A0004C0119460130013545F0E8FB84F8505158
:10B0B00038BD6AB9B0F848318B4209D190F84A31AD
:10B0C000132B01BFD0F84C211370012380F85031AD
:10B0D0007047F0B500241C2500F1B00605FB04F311
:10B0E000F75A8F4204D00134052CF7D1002006E036
:10B0F000C9331488C452C11893788B700120F0BDF5
:10B10000F0B500241C2500F1B00605FB04F3F75A46
:10B110008F4204D00134052CF7D1002006E0B4336F
:10B12000184403681360838893800120F0BDF0B554
:10B1300000241C2500F1B00605FB04F3F75A8F42EA
:10B1400004D00134052CF7D1002009E0BA330344C0
:10B150001C46002114F8010B18B901310629F9D158
:10B16000F0BD196811609B8893800120F8E700000A
:10B1700070B5054690F8850094B0F8B1104B114CAD
:10B180001868B4F84410036801391B6A984704F141
:10B190004702064694F8461001A8FDF78BFA94F88A
:10B1A0004D3004F14E0201A93046FDF76EFD01A8B5
:10B1B000FDF7C9F9002385F88530012014B070BD72
:10B1C0001C3A0700B06800202DE9F04F9DB098466A
:10B1D00002AFB8F10A0F92460446796197F89020C1
:10B1E000D7F89430C7F80CD00FD1022A17D00368D3
:10B1F00004220092D3F8DC4042460023A047D7F84F
:10B200000CD06C37BD46BDE8F08F042A07D0036828
:10B2100004220092D3F8DC400C220023EEE7B8F1C0
:10B220000A0FB3F8009018BFB3F802B0924B1D6834
:10B230002B682846DB6908BF4FF0000B984709F1DF
:10B24000FF318BB2834207D923680A220092D3F8D8
:10B25000DC5042464B4624E00AF107036A46DB080D
:10B26000A2EBC3039D46B8F10A0F6A460CBF0B233D
:10B270000D2302F8083F2B683A611B6A284698475D
:10B2800003689B6805469847B0F5205F2BD1BBF15A
:10B29000000F0AD0236804220092D3F8DC500B225E
:10B2A0004B4679692046A847A9E72846FDF766FB83
:10B2B00080462846FDF75FFB424601460DF1090036
:10B2C00045F0DCFA08F101081FFA88F86B4B3A697F
:10B2D000186803680092D3F8944079695FFA88F39C
:10B2E0000422A0478BE742F6030398420AF1FF3A93
:10B2F00040F09F802846FDF7CCFB48451ED1BBF1AE
:10B30000000F02D023680B22A0E72846FDF746FB7A
:10B310003B6958702846FDF7BEFB3B6958802846BC
:10B32000FDF72CFB80462846FDF725FB42460146EB
:10B3300003A845F0A3FA08F10408C5E72846FDF77D
:10B340002DFB830702D4236802227FE72846FDF7FE
:10B3500028FB10F0020022D0002204F1B0011C20D2
:10B3600000FB02F37E6931F803C0B44510D001320E
:10B37000052AF5D123680F220092D3F8DC307969D1
:10B380001E4642464B462046B04701231E4607E074
:10B39000234493F9C830002BECDA0023F6E7064685
:10B3A0002846FDF705FB83B29B4502D3236807229D
:10B3B0004CE780B2A0EB0B008245A8BF82461FFA83
:10B3C0008AF3BB6004F18C03A1467B604FF0010857
:10B3D0001FFA8AFAB9F8B0307A69934219D109F1A3
:10B3E000B40299F8B31007F11C00FDF763F9CDF82A
:10B3F00000A03B695A46434407F11C012846FDF76B
:10B4000025FC07F11C00FDF79EF8BB6898441FFA65
:10B4100088F87B6809F11C099945DBD1002E3FF4BF
:10B4200055AF42463969201D45F028FA84F88480DA
:10B43000E5E6B0F5245F1BD12846FDF795FC83B205
:10B440009B45B3D280B2A0EB0B08C2452846A8BFEB
:10B45000C246FDF78BFC1FFA8AF200EB0B010AF1E2
:10B46000010A0DF1090045F009FA1FFA8AF82DE7E3
:10B470004FF001082AE700BF1C3A07007C3A07009A
:10B480002DE9F04F99B002AF1D4697F880303A6031
:10B49000012B04460E467B600DD8122D07D10368A0
:10B4A00004220092D3F8DC402A460023A0475C37F0
:10B4B000BD46BDE8F08FD7F88430B3F800808E4BDE
:10B4C000D3F800A0DAF800305046DB69984708F15D
:10B4D000FF318BB283420CD9122DE8D123680A22A6
:10B4E0000092D3F8DC902A46434631462046C847AE
:10B4F000DDE7DAF8003050461B6A984703689B681E
:10B500008146984742F6030B584540F0A0804846D4
:10B51000FDF7C1FA4045484601D1122D6FD1FDF724
:10B520003DFA020771D54846FDF73BFA10F0020AD2
:10B5300004F1B00B16D000221C2101FB02F33BF8F2
:10B540000300B04267D00132052AF6D123680F22EA
:10B550000092D3F8DCA01222434631462046D04761
:10B560004FF0010A00231C2101FB03F23BF802000B
:10B57000B04268D17B68023B5FFA83FBD7F8843026
:10B58000A1180233B4327B6091F8B3102244BAF1AF
:10B59000000F48D0032084F88500A4F8448084F884
:10B5A00046101168C4F847109288A4F84B200A226C
:10B5B00084F8852019465A4684F84DB004F14E00AF
:10B5C00045F05CF994F885200BEB020384F8853094
:10B5D000122D7FF46CAF3B6807336D46DB08A5EB9B
:10B5E000C3039D46132302AA8DF80830BAF1000F59
:10B5F00076D02371012384F88430AD4657E7FDF7F8
:10B60000CDF943077FF553AF8DE7122D7FF44FAF90
:10B610002368032264E7234493F9C830002B95DAAA
:10B620004FF0000A9EE707F10C00FDF743F848468B
:10B630005B467A6807F10C01FDF727FB07F10C0068
:10B64000FCF781FFC4E70133052B8DD1C0E7D9F8A2
:10B65000003048469B689847B0F5245FD5D14846EE
:10B66000FDF78CF90228D0D14846FDF784F902880D
:10B6700042F602139A42C8D1DAF80030A8F102016A
:10B680001B6A5046984703689B688146984758450F
:10B69000BBD100221C2104F1B00001FB02F330F801
:10B6A00003C0B44518D103F1B4022344224493F8F3
:10B6B000B31007F10C00FCF7FDFFD7F884304846C3
:10B6C0005A8807F10C01FDF700FB07F10C00FCF7AD
:10B6D0003AFF4FF0000A7BE70132052ADDD1F8E797
:10B6E000064B186803680092D3F8944004220123A3
:10B6F0003146A04781E700BF1C3A07007C3A0700AB
:10B700001F4B70B5044640F8863B02F0C0FE04F1C2
:10B71000870002F0BCFE1B4B04F1980503F11006F4
:10B72000186859682A4603C20833B3421546F7D150
:10B7300041F288331721C4F8AC300023A4F8A810D4
:10B74000A4F83E31C4F84031A4F8443104F1B40205
:10B7500004F5A0704FF6FF7522F8045C02F8023C75
:10B7600002F8013C136093809181136113751C32C0
:10B770008242F1D1C4F85431C4F85831204670BD2A
:10B78000DC380700C03807002DE9F04F00230446DD
:10B79000A7B098464FF0FF35B0301C264FF6FF7724
:10B7A00006FB03F2825A8A4208BF1D46BA4203F1E1
:10B7B000010318BF08F10108052BF1D16B1C6ED0F5
:10B7C0001C236B4303F1B4072344E619324693F874
:10B7D000B3106846FCF76EFFB8F1010F2FD1314B63
:10B7E000D3F800804FF0000942F6030BD8F8003080
:10B7F0004046DB6998471FFA89FA82451AD2D8F881
:10B80000003051461B6A4046984703689B68824651
:10B81000984758450BD1694613A8FDF751F9504692
:10B82000002213A9FDF751FA13A8FCF78CFE09F1C9
:10B830000109DBE70023A4F83E31A4F84431D4F831
:10B840005881B8F1000F08D0694613A8FDF738F900
:10B8500013A8C04713A8FCF776FE1C2303FB05437F
:10B860004FF6FF72C3F8B0200022E251B280D3F845
:10B87000C400A3F8C8201721A3F8C01083F8CA2079
:10B8800083F8CB2010B103685B6898471C2303FB47
:10B8900005440023C4F8C4306846FCF754FE27B0C2
:10B8A000BDE8F08F1C3A07002DE9F04FA9B000F178
:10B8B0008C030646044601934FF000084FF6FF7ACA
:10B8C000B4F8B010514559D0324B18680368D3F81A
:10B8D000983098470546002850D104F1B4094A46EB
:10B8E00094F8B31002A8FCF7E5FE2B4B1F6808F193
:10B8F00001083B683846DB6998471FFA85FB5845C5
:10B900001AD93B6859461B6A3846984702689268BC
:10B910008346904742F6030398420BD102A915A82B
:10B92000FDF7CEF85846002215A9FDF7CEF915A867
:10B93000FCF709FE0135DCE70023A6F83E31A6F846
:10B94000443184F8B23084F8B330A4F8B0A0C9F818
:10B950000030A9F80430D4F8C400C4F8BA30A4F810
:10B96000BE301723A4F8C03010B103685B68984755
:10B970000023C4F8C43002A8FCF7E5FD019B1C3489
:10B980009C429DD1B8F1000FD4BF0020012029B006
:10B99000BDE8F08F7C3A07001C3A070030B5002361
:10B9A00000F1C8011C2404FB03F28D5CAD0703D534
:10B9B0001044B0F8B00030BD0133052BF3D10620A0
:10B9C000F9E770B5002300F1B0041C2505FB03F274
:10B9D000A65A8E4204D00133052BF7D1002002E095
:10B9E000104490F8C80070BD10B5054C2046FFF714
:10B9F00087FE2046034A0449BDE810403AF069BF7B
:10BA0000B068002000600020A19C020073B50025F2
:10BA100004460E4640F8041B10222946ADF8045097
:10BA20008DF8065044F052FF25752EB3304645F090
:10BA300022FE451E002D237D19DB0F2B1FD8735DC1
:10BA40002D2B02D10135023DF4E77219002112F8C5
:10BA5000012C8DF8042001A810228DF8053045F046
:10BA6000DBFE237DE218013310712375EBE7032B16
:10BA700034BF022310232375204602B070BD10236B
:10BA8000F9E70068704704307047007D7047000098
:10BA90002DE9F047144C80464D1E4FF4AA594FF043
:10BAA0002D0A6A1C1AD018F8057010222146380990
:10BAB00004F016FE1022611C07F00F0004F010FEC7
:10BAC0000C2D04F1020606DC29FA05F3DB0744BF5E
:10BAD000E61C84F802A0013D3446E2E7002323700F
:10BAE0000148BDE8F08700BF0C6A0020007970476C
:10BAF0002DE9F04F89B090460DF1180B027A9DF8B0
:10BB000048601F460023054689460693ABF804307B
:10BB1000FAB99E4214BF4FF0020A4FF0030A2B6895
:10BB200028461B699847194BEA881C6800210720A2
:10BB300023680091CDE90301CDE9011B2046D3F82C
:10BB40003CB011465346D84728B1002009B0BDE8A3
:10BB5000F08F9A46E3E723684A461B6C414620462D
:10BB600098470028F1D123683A465B6C314620465D
:10BB700098470028E9D1236801219B6C204698470B
:10BB80000028E2D101202871E0E700BF7C3A0700DD
:10BB9000034B00210171186803689B6C184700BFB4
:10BBA0007C3A07002DE9F341124B1D682B680122F6
:10BBB0001B6D07460E4628460021002498472B6837
:10BBC000CDE90044D3F84C8020231A4601212846B1
:10BBD000C04768B9012179712B6886EA01021B6DA3
:10BBE00028469847B0FA80F0400902B0BDE8F081DD
:10BBF0002046FAE77C3A0700C1807047017270471F
:10BC0000022908BFC260704770B50B4D04461C3056
:10BC1000164604F0A9FC294604F1280004F0BDFCF6
:10BC2000294604F1340004F0B8FC2368314620466C
:10BC30005B69BDE870401847347A07002DE9F04190
:10BC40000C4D04460F461C302946164604F0A5FC50
:10BC5000394604F1280004F087FC294604F1340039
:10BC600004F09BFC2368314620465B69BDE8F04147
:10BC7000184700BF347A07002DE9F0410C4D044607
:10BC80000F461C302946164604F087FC294604F16D
:10BC9000280004F082FC394604F1340004F064FC0E
:10BCA0002368314620465B69BDE8F041184700BF74
:10BCB000347A07007FB5C36B04460D468BB10B6821
:10BCC00001A89B69984701A904F1340004F0C4FC61
:10BCD000064601A804F0EBFB1EB90024204604B080
:10BCE00070BD636A73B1294601A8FCF7F7FC01A98E
:10BCF00004F11C0004F0A3FC064601A804F0D7FBE5
:10BD0000002EEAD0236B6BB1294601A8FCF75CFD3D
:10BD100001A904F1280004F09FFC044601A804F0E6
:10BD2000C6FBDBE70124D9E738B50F4B03604FF4BE
:10BD300020030E4D43600123037200230446C0E933
:10BD40000333C0E9053329461C3004F0FBFB2946C8
:10BD500004F1280004F0F6FB294604F1340004F055
:10BD6000F1FB204638BD00BFDC390700347A0700FC
:10BD700003688B4208D9436800228A4202D05B687C
:10BD80000132FAE7186870470020704770B5044622
:10BD9000406800252368AB4206D9466808213AF07E
:10BDA000D3FF01353046F5E70023C4E90033A36033
:10BDB00070BD000010B50A4B044640F8343B04F057
:10BDC00076FB04F1280004F072FB04F11C0004F07F
:10BDD0006EFB04F11000FFF7D9FF204610BD00BF35
:10BDE000DC39070010B50446FFF7E4FF2046402188
:10BDF0003AF0AAFF204610BD70B50E4B05461868F4
:10BE0000036800221B6D11460024984705F11006B7
:10BE10006C712B699C4209D221463046FFF7A8FF7E
:10BE200010B103685B6898470134F2E73046FFF7CA
:10BE3000ADFF70BD7C3A070003688B4270B50446C5
:10BE40001AD90022406813468A42456803D0034647
:10BE500001322846F8E7066863B96560A268824245
:10BE600008BFA36008213AF06FFF2368013B2360FD
:10BE7000304670BD5D60F1E70026F9E72DE9F0413D
:10BE8000074694B00D46002401F110082B699C422E
:10BE90002AD221464046FFF76BFF0646FCF7D1FC4D
:10BEA00000B3314601A8FCF70BFE21464046FFF7E0
:10BEB000C3FF1EB1336830465B6898472B6801A901
:10BEC000DB6B2846984750B101A93846FCF7F8FDCE
:10BED00001A8FCF738FB384614B0BDE8F08101A892
:10BEE000FCF731FB0134D1E73846FCF7D3FBF2E72E
:10BEF0002DE9F04FC568ABB004460F4692469B460D
:10BF00009DF8D0809DF9D8902DB3032922D11A46EF
:10BF1000514604A8FCF7CEFBCDF80090359B424675
:10BF2000394604A8FCF767FC236804A9DB6B2046AC
:10BF3000984748B104A917A8E468FCF7C1FD17A801
:10BF4000A04717A8FCF7FFFA04A8FCF7FCFA2BB0EF
:10BF5000BDE8F08F002504F110032269AA420DD933
:10BF6000184629460393FFF703FF5A4651460646F3
:10BF7000FCF731FC039B002841D006BB23691F2B33
:10BF800008D9002104F11000FFF756FF10B1036833
:10BF90005B6898474C203AF0ABFE5A46514606463D
:10BFA000FCF788FB08203AF0A3FE0023C0E90063F9
:10BFB000636933BB60612569A0616B1C2361042F39
:10BFC00022D0CDF80090359B424639463046FCF7EA
:10BFD00012FC3046FCF735FC0028B8D0E368002B93
:10BFE000B5D0314604A8FCF76BFD294604F11000DA
:10BFF000FFF722FF336830465B68984794E70135C6
:10C00000ABE7A3695860D6E74B46359A41463046C0
:10C01000FCF702FCDDE770B446799DF80C409DF911
:10C02000145026B10595039470BCFFF761BF70BC36
:10C030007047000010B5054C2046FFF775FE2046FE
:10C04000034A0449BDE810403AF043BC346A00207A
:10C0500000600020B5BD0200406870474368994207
:10C0600008D283680022914202D05B680132FAE76D
:10C07000186870470020704773B5044630203AF0C6
:10C0800037FE32490546FDF733F9E56154203AF0B1
:10C090002FFE00250646142302222D490095FCF7A9
:10C0A00049FD266254203AF023FE02231A46064632
:10C0B00028490095FCF73EFD666230203AF018FEF4
:10C0C00025490646FDF714F9A66254203AF010FE01
:10C0D00020220423214900950646FCF72BFDE66249
:10C0E000E069FCF74EFC206AFCF74BFC606AFCF749
:10C0F00048FCA06AFCF745FCE06AFCF742FCD4E986
:10C100000701FDF71CF9616AE069FDF718F9D4E948
:10C110000A01FDF714F9236811491B692046984765
:10C120002368294620465B69984723682046DB6AD6
:10C1300098472368E1699B6A204698472368A16A6B
:10C140009B6A204602B0BDE870401847203A0700BD
:10C15000253A07002A3A07002F3A0700343A070029
:10C16000393A070010B50446C06948B1FCF70EFC27
:10C1700030B9E06910B103685B6898470023E36158
:10C18000206A48B1FCF702FC30B9206A10B103689C
:10C190005B68984700232362606A48B1FCF7F6FBAE
:10C1A00030B9606A10B103685B6898470023636226
:10C1B000A06A48B1FCF7EAFB30B9A06A10B1036885
:10C1C0005B6898470023A362E06A48B1FCF7DEFB96
:10C1D00030B9E06A10B103685B6898470023E362F6
:10C1E00023682046DB6ABDE810401847006AFCF768
:10C1F00041BC07B50222ADF80610406A0DF10601F8
:10C20000FCF7D8FB03B05DF804FB10B50446084604
:10C21000FCF777FB014628B1236820469B6ABDE8FE
:10C220001040184710BD2DE9F0410025074688460B
:10C230002C463B683846DB699847A84211D93B68D1
:10C2400029461B6A3846984703689B680646984704
:10C25000B0F5205F02D0464503D02646013534466E
:10C26000E7E720463CB1FCF789FB0228204604D1D1
:10C27000FCF781FB0088BDE8F081FCF77CFB40897E
:10C28000F9E70000074A02600022C0E90122C0E984
:10C290000322C0E90522C0E90722C0E90922C262DF
:10C2A000704700BF4C3A070038B5044608200D46D9
:10C2B0003AF01EFD0023C0E9005363682BB96060AB
:10C2C0002368A0600133236038BDA3685860F7E796
:10C2D0002DE9F84F04460D46084604F10408FCF722
:10C2E00050FB29464046FFF7DFFF08203AF000FDEB
:10C2F0000023C0E900536369002B47D160612369C3
:10C30000A0610133236123682046DB699847002739
:10C310001FFA80FB2846FDF702F8B8423BD93946A0
:10C320002846FCF7FEFF0646FCF72BFB314640464D
:10C33000FFF7BAFF23682046DB69984781B2304691
:10C34000FCF7A5FB3046FCF71CFB31464046FFF7E7
:10C35000ABFF4FF000093046FCF7A1FB484518D968
:10C3600049463046FCF79DFB8246FCF70AFB5146E6
:10C370004046FFF799FF23682046DB69984781B262
:10C380005046FCF7F5FC09F10109E4E7A3695860A0
:10C39000B5E70137BEE723682046DB699847594671
:10C3A00082B22846BDE8F84FFCF7B2BF70B504462C
:10C3B000406800252368AB4206D9466808213AF058
:10C3C000C3FC01353046F5E70023C4E90033A36020
:10C3D00070BD70B50446406800252368AB4206D99D
:10C3E000466808213AF0B0FC01353046F5E70023F5
:10C3F000C4E90033A36070BD38B50546064B45F867
:10C40000103B0446FFF7AEFE2846FFF7E2FF201D73
:10C41000FFF7CCFF204638BD4C3A070010B5044664
:10C42000FFF7EAFF204630213AF08EFC204610BD8F
:10C4300070B50446002523682046DB699847A8426A
:10C440000FD9236829461B6A204698470646FCF701
:10C450009DFA20B91EB1336830465B6898470135B4
:10C46000E9E7201DFFF7A2FF002523699D420BD2BB
:10C4700063690022954202D05B680132FAE71868CE
:10C48000FCF794FF0135F0E704F11000FFF7A1FF7E
:10C4900070BD000008B5054B1846FFF7F3FE044ACF
:10C4A00004491846BDE808403AF013BA746A0020FF
:10C4B00000600020F9C30200704700000023C0F8AC
:10C4C0000831024B186803681B681847B83B07001F
:10C4D000024B186803685B68184700BFB83B070049
:10C4E000036800215B69184710B40368D3F8A440BF
:10C4F0000023A4461A4640F603415DF8044B60470A
:10C5000037B50368ADF80610D3F8A45002220DF138
:10C51000060341F205410446A84750B9D4F8183241
:10C52000BDF806201988914203D193F9020003B0A7
:10C5300030BD7F20FBE713B5CDE900230368082257
:10C54000D3F8A44040F601416B46A04702B010BDAD
:10C5500013B5CDE9002303680822D3F8A44042F2C2
:10C5600001016B46A04702B010BD10B40368D3F8B8
:10C57000A44006220B46A44642F205015DF8044B96
:10C5800060471FB5089C8DF804309DF818308DF871
:10C5900005309DF81C308DF806302368CDF8073043
:10C5A000A388ADF80B309DF824308DF80D309DF840
:10C5B00028308DF80E300368ADF80010ADF8022079
:10C5C000D3F8A4400F226B4642F20601A04704B004
:10C5D00010BD13B503688DF80710D3F8A4400122ED
:10C5E0000DF1070342F20A01A04702B010BD13B5D6
:10C5F000ADF803309DF810308DF805309DF81430FB
:10C600008DF8063003688DF80010ADF80120D3F8DE
:10C61000A44007226B4642F20B01A04702B010BDB6
:10C6200013B503688DF804108DF80520D3F8A440E5
:10C63000022201AB42F20C01A04702B010BD10B5BE
:10C6400088B00B9C8DF808309DF828308DF80930A3
:10C650002368CDF80A30A388ADF80E309DF830304D
:10C660008DF81030BDF83430ADF81130BDF83830E9
:10C67000ADF81330BDF83C30ADF81530BDF84030A2
:10C68000ADF81730BDF84430ADF81930BDF848307A
:10C69000ADF81B300368ADF80410ADF80620D3F8F0
:10C6A000A440192201AB42F20D01A04708B010BD11
:10C6B00010B40368D3F8A4400023A4461A4642F2FB
:10C6C0000E015DF8044B60471FB5ADF80430BDF8AE
:10C6D0001830ADF80630BDF81C30ADF80830042332
:10C6E000ADF80A300623ADF80C300368ADF8001041
:10C6F000ADF80220D3F8A4400E226B4642F213019B
:10C70000A04704B010BD10B4D0F8EC402CB11946CD
:10C71000104623465DF8044B18475DF8044B7047FC
:10C72000F0B51D4603688BB016460F469B6F044656
:10C730009847731E8DF800700DF10602053613F848
:10C74000011F02F80119B342F9D1109B6A1E0DF1C5
:10C750001601013B0F3512F8010F01F80109AA4239
:10C7600013F8010F4874F6D123682722D3F8A45098
:10C7700042F227016B462046A84723682046DB6F1C
:10C7800098470BB0F0BD13B5531E8DF8001005325D
:10C790000DF1060113F8014F01F801499342F9D157
:10C7A00003680722D3F8A44042F22B016B46A0474E
:10C7B00002B010BD07B503680122D3F8883069467E
:10C7C000984703B05DF804FB37B5002300930DF1E3
:10C7D0000504CDF803304B1E053113F8015F04F852
:10C7E00001598B42F9D103688DF80620D3F8A44093
:10C7F00007226B4640F60D41A04703B030BD13B58C
:10C8000013238DF806300368ADF80410D3F8A44064
:10C81000032201AB40F20641A04702B010BDC0F8B0
:10C82000041170470023C0F80431704732B190F80A
:10C830001D329342C6BF9A1AD2B2002280F81D223E
:10C84000704710B4D0F8F8300C4623B1204611469A
:10C850005DF8044B184718465DF8044B704710B458
:10C86000D0F8EC300C4623B1204611465DF8044B5D
:10C87000184718465DF8044B704710B4D0F8F430F0
:10C880000C4623B1204611465DF8044B1847184664
:10C890005DF8044B7047D0F8FC302BB1D0F80001A4
:10C8A000003018BF012070470320704710B54FF4C7
:10C8B000487104463AF048FA204610BD564B2DE91F
:10C8C000F04704461D6819B12B6828469B689847B5
:10C8D0002B68524E9B69524FDFF848812846984793
:10C8E0002B682846DB6898472B68002800F08F806B
:10C8F0005B6928469847D4F80831B3F5817F5FFA21
:10C9000080F912DB0023C4F80831D4F8043163B194
:10C910002B682846DB6998473146D4F8040103F0B8
:10C9200087FC2B6828469B699847D4F80821531C3C
:10C930002244C4F8083182F80C9194F80C21022AA0
:10C940002ED1052BCCDD94F8101194F80F2102EBB9
:10C95000012204329342C3DD2B682846DB699847E5
:10C96000D4F804314BB1236894F80821D3F8C0906F
:10C97000414604F586732046C8470023D4F80811C1
:10C98000C4F808312368D3F8B430013904F20D1229
:10C99000C9B2204698472B6828469B6998479FE76D
:10C9A000042A21D1032B9BDD94F80E2102329342FD
:10C9B00096DD2B682846DB699847D4F804314BB1E3
:10C9C000236894F80821D3F8C090394604F586739B
:10C9D0002046C8470023D4F80811C4F8083123685A
:10C9E0000139D3F8BC30D1E70023C4F80831D4F8BA
:10C9F0000431002B3FF474AF2B682846DB6998475D
:10CA000010224946D4F8040103F07FFCC3E728460E
:10CA1000DB69BDE8F0471847B83B0700A63A0700B6
:10CA2000CE3A0700BB3A07001346F0B533F8046B63
:10CA3000C6F30137022F87B00546144611D154883A
:10CA4000E4B21988221F8A4220D0022F07D1224641
:10CA5000194605F21E2043F011FF85F81D4307B06B
:10CA6000F0BD012FFBD190F81D03528800F21E206B
:10CA70001946284443F002FF638895F81D431C447F
:10CA8000E4B285F81D4305F21E23DAE75C88A0B204
:10CA90000428C6F30B010AD1184800680468246A08
:10CAA0000433D2B2A047002385F81D33D7E7052809
:10CAB00004D1134800680468E468F1E7062804D14B
:10CAC0000F48006804682469EAE700220392ADF881
:10CAD000142001228DF80C200622ADF80E2002222F
